:020000040000FA
:030000000200C734
:03001300020C9844
:03002B00020A8D39
:03005300020A900E
:100083000203BE00000080FBE490010178187903AD
:100093008002F0A3D8FCD9FA7A187B039000D678B3
:1000A3000979018015E493A3AD82AE838A828B83A1
:1000B300F0A3AA82AB838D828E83D8E9D9E7120C91
:1000C300C212008675D0007581BF751001751101CC
:1000D30002008B00000000717641297009080808AE
:1000E300226016181818C6C333C608C633C608C616
:1000F30033C608C633C6D5E0EA22E0F608A3E0F625
:1001030008A3E0F608A3E0F622E6F008A3E6F00869
:10011300A3E6F008A3E6F022E0FAA3E0FBA3E0FCE9
:10012300A3E0FD22E0FCA3E0FDA3E0FEA3E0FF22A9
:10013300CAC0E0E6F0A308DAFAD0E0FA22CAC0E0C7
:10014300E0A3C582CCC582C583CDC583F0A3C58298
:10015300CCC582C583CDC583DAE6D0E0CA2270045C
:1001630022600D18C6C333C608C633C6D5E0F418DB
:1001730022251010AF08F510400C15118008F5105A
:1001830040021511D2AF2200C0D0251010AF08F5E0
:1001930010500C05118008F51050020511D2AFD094
:1001A300D0222510F58210AF08F510400C151180F0
:1001B30008F51040021511D2AF851183222510F5E1
:1001C30082E43511F583222510C582C0E0E51134A0
:1001D300FFC583C0E0E510C3958224F910AF0885FD
:1001E30083118582108008858311858210D2AFCE5A
:1001F300F0A3E520F0A37808E608F0A3DEFAEFF019
:10020300A3E58124FBF8E608F0A3E608F0A30808B9
:10021300E608F0A3E608F0A315811581D0E0FED02F
:10022300E0F815811581E8C0E0EEC0E02285118376
:10023300851082E0A3FEE0A3F5207808E0A3F6088A
:10024300DFFAE0A3FFE0A3C0E0E0A3C0E0E0A3C0C7
:10025300E0E0A3C0E010AF08858210858311800819
:10026300858210858311D2AFD083D08222C0D0255E
:1002730010C582C0E0E51134FFC583C0E0E510C3BB
:10028300958224F310AF0885831185821080088539
:100293008311858210D2AFC8F0A3E9F0A3EAF0A3DB
:1002A300EBF0A37908E709F0A3D8FAECF0A3EDF09B
:1002B300A3EEF0A3EFF0A3D0E0F0A3D0E0F0A3D03F
:1002C300E0F0A3E520F0A3E5F0F0A32285118385F8
:1002D3001082E0C0E0A3E0F9A3E0FAA3E0FBA37877
:1002E30008E0F608A3DFFAE0FCA3E0FDA3E0FEA329
:1002F300E0FFA3E0C0E0A3E0C0E0A3E0F5D0A3E00B
:10030300F520A3E0A3F5F010AF08858311858210D3
:100313008008858311858210D2AFD082D083D0E04C
:10032300F8D0E03274028000C0E0F4041201A5D0DA
:10033300E0120133227404800474028000CCC0E014
:10034300EDC0E0E510C39CCCAD1150011D10AF060C
:100353008C108D1180068C108D11D2AF120140D0FC
:10036300E0FDD0E0FC22D2AF22EBC313FBEA13FA89
:10037300EAF8EBF9E824FFFAE934FFFBE8496013F4
:10038300000000000000000000000000000000006A
:100393000080DD2274F81201CAEAFEEBFFEEF8EFEB
:1003A300F9E824FFFEE934FFFFE84960097AE87BB6
:1003B3000312036C80E77F01020230C0E0C0D0C0AB
:1003C30082C083E591900101F0759B00E0F4F59103
:1003D300D083D082D0D0D0E03274F71201CA75082E
:1003E3008075090078081203277C007D007A007B62
:1003F30060120FC5740212018A798112086479911F
:1004030012086490618674E502051974F71201CA33
:10041300E9FEEAFF8B08ECA2E25004D2F08002C2AC
:10042300F0A2F0E433F8A2E0906003E054FE48F059
:1004330074035CF8906001E054FC48F0E0C2E212FF
:10044300050FA3E0D2E0F0E0D2E1F0E0D2E2120542
:100453000FE0543FF09061877479F09061B67416A1
:10046300F09061BC7407F09061807441F0ECA2E3FA
:100473005004D2F08002C2F0A2F0E433F8E933482A
:10048300906190F0EB1313543F4440A3F0906193B9
:100493007463F074076E600574036E70319061A22B
:1004A3007466F090619274CCF0906003E0D2E1F056
:1004B300E0D2E2F0EA9061A5600A7401F090607EF8
:1004C30074D08026740FF090607E7490801C9061CD
:1004D300A27410F090619274C0F0906003E0C2E1E6
:1004E300F0E0C2E2F09061A57401F079011207B760
:1004F300E508906194F0EF7A827B0060051206C6EE
:10050300800312051F790012094C800BF0E0C2E34F
:10051300F0E054CFF022F07F0202023074F71201B0
:10052300CA120778FE906194E0541FF97002792093
:1005330012078C120161AA08AB09E9F508750900D5
:1005430074076E600574036E7047906012E4F0A345
:10055300F074047808120161AC08AD09E9C3941C76
:10056300400D1206BE12016112068124A6801BE90A
:10057300C394141206BE400A12016112068124BEFE
:10058300800812016112068124D9F8E934F80206C1
:100593005974066E600574026E703F906012E4F049
:1005A300A3F074057808120161AC08AD09E9C3949E
:1005B3001C400A12069F12068824168017E9C3946A
:1005C30014906192E0540FF94005120669800512F8
:1005D30006652476F8E934F6807C740678081201FF
:1005E30061AC08AD0974096E702C906012E4F0A33D
:1005F300F0E9C3941C1206AC400E12016112066F9F
:1006030024F6F8E934F0804E12016112066F24D605
:10061300F8E934F1804074046E600574086E703F2D
:10062300906012E4F0A3F0E9C394141206B4740AC0
:1006330078084013120161E509543CF91206652458
:1006430036F8E934EF800F120161E509543CF912E1
:100653000669F8E934EDF9906014E8F0A3E9F002D3
:10066300051A12067822120678245622E509541E2A
:10067300F912067822C3EB99F9EA120688221206C8
:100683008F120688222CF8E93DF9E822A808E5092B
:100693005407F9EAC398F8EB99F9E822906192E0DC
:1006A300540FF9C3EB99F9EA221206B474097808D6
:1006B30022906192E0F508750900221206B47407CE
:1006C30078082274F71201CA120778FC906194E04B
:1006D300541FF97002792012078C120161AA08AB2A
:1006E30009E9F50875090074076C600574036C70FB
:1006F3001B74047808120161E5082414F8E5093431
:10070300051207812480F8EB34F6805D74066C6073
:100713000574026C701774057808120161E50824EA
:10072300B0F8E509340412078124C08038740678D0
:1007330008120161A808A90974096C7012E824D091
:10074300F8E9340712078124C0F8EB34F9801A74EE
:10075300046C600574086C7019E8245CF8E93412C1
:1007630012078124F8F8EB34F8F9906016E8F0A347
:10077300E9F002051A906190E0C313540F22F99037
:100783006012E8F0A3E9F0EA22900102EAF0A3EB99
:10079300F0900102E0F508A3E0F50974057808225A
:1007A300C082C083EA24B5547FF8906000E054808F
:1007B30048020856C082C083120778F8E990010402
:1007C300F0740768600574036870179061A0747F04
:1007D300F090619A7429F0A3745AF09001047402A2
:1007E300802874016970119061A0747FF090619A00
:1007F300743FF0A3745A8012E970109061A0743AA8
:10080300F090619A7433F0A37455F08047C082C0AE
:10081300839061B1E0D2E0803AC082C083E9F8906E
:100823006188E0F99061B1E06015E9A2E24010E867
:10083300601FE5E170FC75E10BE591A2E650FAE07B
:10084300C2E0F0759100759B0090607F740FF079A2
:10085300008001F0D083D0822212018A7F04020239
:1008630030E5E170FC89E122C082C083E990601A1F
:10087300F0906001E05403C394024013EB906019BD
:10088300F0906020120899F090601874188004901A
:100893006018E4020856E4F0A3F0A3F0A322C08298
:1008A300C083E9600F146025146032146052146031
:1008B300740209499061E01208997407F090600886
:1008C30012089974FFF0906004740180789061E0DD
:1008D300E4F0A3F0A37405F0A37480800E9061E0AC
:1008E300E4F0A3F0A37421F0A37410F0906008E483
:1008F300F0A3F0A374FFF0A3F090600474028045AA
:100903009061E0E4F0A374CBF0A3746DF0A3745D85
:10091300F0906008E4F0A374FFF0A3F0A3F09060FC
:1009230004740380209061E074B7F0A3741DF0A3F6
:1009330074C1F0A37404F090600874FF12089AF075
:100943009060047404F0020857C082C083E9A2E1F6
:1009530050079061E974028009A2E09061E9500AAE
:100963007401F090600C74808001E402085674F501
:100973001201CA74FC120174851082851183EAF096
:10098300A3EBF0A3ECF0A3EDF0906194E0541FF916
:1009930070047920803B7420C399FA8510828511F5
:1009A3008378081200FDEA78081200DE851082853C
:1009B3001183780812010C740F1201C07808120019
:1009C300FDEA78081200DE740F1201C078081201E4
:1009D3000C74031201C0E0906198F074021201C01C
:1009E300E0906197F0E9C39411401C74011201C0B7
:1009F300E0906196F0E9C394194011851082851146
:100A030083E09061958009906196E4F0906195E4AC
:100A1300F0740F1201C0120127EC4D4E4F60477462
:100A2300121201C0E09061FBF074111201C0E0905A
:100A330061FAF0E9C39411401B74101201C0E090F5
:100A430061F9F0E9C394194010740F1201C0E090EA
:100A530061F880099061F9E4F09061F8E4F0906145
:100A630094E0D2E78006906194E0C2E7F074040258
:100A7300085CE5E170FC75E10922C082C0839061E6
:100A830082E049F0439A01020857C2C732C0E0C06E
:100A9300D0E8C0E0C082C083A8A1E8A2E4500690D9
:100AA30001057401F0E8F4F5A1C2C2D083D082D06D
:100AB300E0F8D0D0D0E03274F11201CA8A088B0971
:100AC3008C0E8D0F740F1201C0E0FEA3E0FF8C0AA1
:100AD300EC8EF0A4C50AA8F08FF0A428F88EF0EDF0
:100AE300A428F50BAA0AFB120E978B0DA90D8508F6
:100AF30082850983EAF0A3EBF0EA49700280FEEAFB
:100B0300250AF8EB350BF9850882850983A3A3E849
:100B1300F0A3E9120B70E50EF0A3E50F120B6AE4E4
:100B2300F0A3120B6AA3A3EEF0A3EF120B5D8508EB
:100B330082850983A3A3A3A3A3A3A3A3A3A3E8F0E9
:100B4300A3E9120B5DE508240CF582E43509F5836E
:100B5300E8F0A3E9F07F08020230F08508828509F6
:100B630083E0F8A3E0F922120B70A3A322F0850817
:100B730082850983A3A3A3A322D083D0822274F303
:100B83001201CAEAFEEBFFEA120C508A828B83A39E
:100B9300A3A3A3E0687003A3E069700280FEEA24C4
:100BA3000AF508E43FF509EA120C3512033C8508FF
:100BB30082850983E0FAA3E0FB120F7F740212011E
:100BC3008A120C637002E96B7003120C43850C826A
:100BD300850D83120E0AF07F0602023074F31201B0
:100BE300CAEAFEEBFFECFAEDFBEE120C50E849709B
:100BF3000280FEEE240CF508E43FF509EE120C35F5
:100C030012033C850882850983E0FCA3E0FD120FF3
:100C13007F740212018A120C637002E96B70031273
:100C23000C43850C82850D83E024FFF0A3E034FFA1
:100C330080A42408F50AE43FF50B850A82F5832294
:100C43008E828F83120C8CE8F0A3E9F0222406F540
:100C53000CE43FF50D850C82F583E0F8A3E0F9225F
:100C6300850A82850B83120C8CE028F8A3E039F9FE
:100C7300850882850983E8F0A3E9F08E828F83A338
:100C8300A3E0FAA3E0FBE86A22E0F8A3E0F9850811
:100C93008285098322C0E074F212027074FF12018C
:100CA30074E5C1851082851183F0AC10AD117A060D
:100CB3007B01120B81740112018A7F010202CF753D
:100CC300080175090078081203277C807D007A06E5
:100CD3007B01120ABA740212018A120CE8120D1077
:100CE300120E1380FE53C6B8E59EA2E640FA75F3D2
:100CF3001175F411C28BD2AAD2AFE586547F44207A
:100D0300F58675C2D8E5C575C52B020369C082C0D7
:100D130083790112081C1203DC7C017B207A0179A0
:100D23000312040E79021208A190031812033890DB
:100D3300031C12011B120971740412018A7B107ABD
:100D43001879EF12086B906018E0D2E2F07A627BB8
:100D5300091207A31208107940120A7D12036902CF
:100D63000B7C74F31201CA74FF12017489088A0C94
:100D73008B0DAE08747FC39EF895E0F99061D0E0C7
:100D8300FAC3E89AE99400A2D265D03350047900FB
:100D9300806D8508D9E50C4B6063750A00750B00FF
:100DA300804CAC10AD11AA0CAB0D120BDF85108279
:100DB300851183E0F5D9C3900315E09402A2D265AF
:100DC300D0335022851082851183E0C0E090031454
:100DD300E02414F8A3E034018882F583D0E0F09096
:100DE3000314120E0AF0050AE50A7002050BC3E5A7
:100DF3000A9EE50B9400A2D265D03340A5A90874DE
:100E03000112018A020BDAE02401F0A3E03400228C
:100E130074F81201CA90010CE0FEA3E0FFEE4F60EC
:100E2300F47A0A7B001203977A067B01EEF9120D1E
:100E330065E960E1120A75900101E0A2E650F890BD
:100E4300607FE07005900101E4F0E5E170FC75E17D
:100E53009180C274F81201CAECF8EDF98A828B838F
:100E6300A3AE82AF83E0FAA3E0FBEAC398FCEB995D
:100E7300FDC3EC9404ED940040158E828F83E8F05B
:100E8300A3E9F088828983E4F0A3EAF0A3EBF07F7F
:100E93000102023074F61201CA900316E0F8A3E0CF
:100EA300F9E849700A9003167420F0A37403F090D4
:100EB3000316E0FEA3E0FF741FC39EFC74049FFDB2
:100EC300EA2403F8E43BF9C3EC98ED994040E08E43
:100ED30082F5837401F0900316E02AFCA3E03B8CB7
:100EE30082F583A3A3A3AC82AD83900316ECF0A396
:100EF300EDF08E828F83A3ECF0A3EDF0C3E49AF8B8
:100F0300E49BF9900316E028FAA3E0398062782085
:100F130079038004ECF8EDF988088909C3E5089E94
:100F2300E5099F504E88828983A3E0FCA3E0FD88F6
:100F3300828983E070DEECC39508F508ED9509F529
:100F430009E50824FDF508E50934FFF509C3E508BB
:100F53009AE5099B40BEE82403FEE439FF7401F0DF
:100F6300EE2AFCEF3BFDE8FAE9FB120E56EEFAEF30
:100F7300FB80047A007B007F0302023074F71201C6
:100F8300CAEAF8EBF974091201C0E0FEA3E0FF809E
:100F9300188C828D83E088828983F0A3A882A98339
:100FA3008C828D83A3AC82AD838E088F09E50824E0
:100FB300FF1EE50934FFFFE508450970D47F0202EF
:100FC3000230C082C083851082851183E0F8A3E0DC
:100FD300F9E84960128A828B83ECF0A3E824FF18B6
:0C0FE300E934FFF94870F2D083D082227C
:04000005000000C730
:00000001FF
