:020000040000FA
:030000000200D328
:03002B0002152695
:030053000215296A
:03006B0002219AD5
:10008300020BEC00000080FB1200E2B90003020047
:10009300CDE4900101784D79018002F0A3D8FCD919
:1000A300FA90014DAA82AB839000E578B479018080
:1000B30015E493A3AC82AD838A828B83F0A3AA82D7
:1000C300AB838C828D83D8E9D9E71220A1120086F5
:1000D30075D0007581BF75100175110102008B7910
:1000E3000122000000000100000071764129102761
:1000F3000000640000000A000000E803000007009D
:100103000000FFFFFFFFFFFF020400FF01030506DE
:10011300040602070308094746534B203235306B68
:100123002031363020201E00004746534B2020202C
:10013300314D20313630201F1E00004746534B20DF
:100143002020314D20323530201F1E0000474653FA
:100153004B202020324D20333230201F1E00004719
:1001630046534B202020324D20353030201F1E00B7
:10017300004D534B20203235306B202D2D2D201F69
:100183001E00004D534B20203530306B202D2D2D7C
:1001930020201F0000E066701008A3E066700A08C4
:1001A300A3E066700408A3E06622C3E09608A3E018
:1001B3009608A3E09608A3E096A2D265D03322C3A3
:1001C300E09608A3E09608A3E09608A3E096220829
:1001D3000808EAC0E0EBC0E086F0E7A4FA18098655
:1001E300F0E7A42AFA180986F0E7A42AFA18098680
:1001F300F0E7A42AFA1986F0E7A4FBE5F02AFA1936
:100203000886F0E7A42BFBE5F03AFA190886F0E735
:10021300A42BFBE5F03AFA18180986F0E7A4C5F019
:100223002BFBE43AFA1908E7C5F0C6A426F6E5F075
:100233003BFBE43AFA1886F0E7A4F6E5F00826F665
:10024300E43B08F6E43A08F6D0E0FBD0E0FA22E417
:10025300CFC0E0E4CEC0E0E4CDC0E0E4CCC0E075C4
:10026300F020C3E633F608E633F608E633F608E68D
:1002730033F6181818EC33FCED33FDEE33FEEF3391
:10028300FFC3EC9709ED9709EE9709EF9719191931
:10029300400FFFEC97FC09ED97FD09EE97FE191946
:1002A30006D5F0BEECF709EDF709EEF709EFF719FC
:1002B3001919D0E0FCD0E0FDD0E0FED0E0FF22121F
:1002C300032A1818181202521203191919192212A3
:1002D3000319191919080808E618181820E7E01275
:1002E300025212032A18181822090909E7191919C1
:1002F30020E7DC080808E618181820E70302025272
:1003030012032A18181812025212032A1818181264
:10031300031919191922E4C397F709E497F709E4B4
:1003230097F709E497F722E4C396F608E496F608EC
:10033300E496F608E496F6226016080808C6C31386
:10034300C618C613C618C613C618C613C6D5E0EA20
:10035300227009080808226016181818C6C333C685
:1003630008C633C608C633C608C633C6D5E0EA2274
:10037300E026F608A3E036F608A3E036F608A3E085
:1003830036F622E026F008A3E036F008A3E036F0C4
:1003930008A3E036F022E056F608A3E056F608A3D9
:1003A300E056F608A3E056F622E647F60809E647C4
:1003B300F60809E647F60809E647F622E0F608A339
:1003C300E0F608A3E0F608A3E0F622E493F6087447
:1003D3000193F608740293F608740393F622E6F089
:1003E30008A3E6F008A3E6F008A3E6F022E0FAA3E8
:1003F300E0FBA3E0FCA3E0FD22EAF0A3EBF0A3EC17
:10040300F0A3EDF022CAC0E0E6F0A308DAFAD0E0E8
:10041300FA22CAC0E0E0A3C582CCC582C583CDC59C
:1004230083F0A3C582CCC582C583CDC583DAE6D06C
:10043300E0CA22600D08C6A2E713C618C613C6D5C4
:10044300E0F322700422600D18C6C333C608C63316
:10045300C6D5E0F41822251010AF08F51040021598
:10046300118008F51040021511D2AF22C0D025101B
:1004730010AF08F510500205118008F51050020561
:1004830011D2AFD0D0222510F58210AF08F510405D
:100493000215118008F51040021511D2AF851183A2
:1004A300222510F582E43511F583222510C582C07B
:1004B300E0E51134FFC583C0E0E510C3958224F95C
:1004C30010AF08858311858210800885831185828A
:1004D30010D2AFCEF0A3E520F0A37808E608F0A38E
:1004E300DEFAEFF0A3E58124FBF8E608F0A3E608C3
:1004F300F0A30808E608F0A3E608F0A31581158128
:10050300D0E0FED0E0F815811581E8C0E0EEC0E050
:1005130022851183851082E0A3FEE0A3F5207808ED
:10052300E0A3F608DFFAE0A3FFE0A3C0E0E0A3C086
:10053300E0E0A3C0E0E0A3C0E010AF08858210852F
:1005430083118008858210858311D2AFD083D08236
:100553002274048006740280027401C0E0F4041261
:100563000489D0E012040822740480047402800019
:10057300CCC0E0EDC0E0E510C39CCCAD1150011D33
:1005830010AF068C108D1180068C108D11D2AF1216
:100593000415D0E0FDD0E0FC224343323534332050
:1005A300504552205465737420005075736820279A
:1005B300427574746F6E2031272000546F2042659A
:1005C30067696E2020202020202020004D6F646565
:1005D3003F004D61737465720052656D6F74650001
:1005E3004368616E3A20202000465245513A20204C
:1005F3002000204D487A005061636B6574204C6580
:100603006E6774683F2020005061636B65743A2005
:1006130000206279746573004E756D2E206F66201D
:100623005061636B6574733F00205061636B657445
:1006330073004C4E41206761696E3F004C4F570079
:1006430048494748004D6173746572204D6F646576
:1006530020285478290050636B74733A200054782F
:1006630020426561636F6E202831306D7329004E1F
:100673006F20426561636F6E205369676E616C0022
:10068300436F6D6D616E643A005265737461727489
:1006930020546573743F004E657720546573743F2F
:1006A3000052657472793F005045523A2020200071
:1006B30020252E00525353493A20002064426D00F6
:1006C3004E23204F4B3A20004352433A2020200030
:1006D3004C6F73743A2020004552524F5220434FBF
:1006E30044453A20004D756C7469706C65204D412A
:1006F300535445527300557365206F6E65204D4109
:100703005354455200536574207570206E657720ED
:10071300746573743A00507265737320454D2052AB
:10072300455345540052656D6F74653A204F4E4CE6
:10073300494E450052656D6F74653A204F46464CED
:10074300494E4500202020202020201F002020206B
:10075300202020201E002020202020201E1F0000FB
:100763001E1F20202020203E3E427574746F6E3180
:10077300001F2020202020203E3E427574746F6E9F
:1007830031001E2020202020203E3E427574746FCD
:100793006E31004D4F44202052415445204445566C
:1007A30000202020202062707320206B487A0047AD
:1007B30046534B203235306B2031363020201F001A
:1007C3004746534B202020314D2031363020201F07
:1007D300004746534B202020314D20323530202016
:1007E3001F004746534B202020324D203332302008
:1007F300201F004746534B202020324D20353030F8
:1008030020201F004D534B20203235306B202D2DDF
:100813002D20201F004D534B20203530306B202DD1
:100823002D2D20201F000A10203F64000000E80344
:10083300000010270000A086010040420F0074F75B
:100843001204AEE9FCEAFDEBFE75080175090078B8
:1008530008120446A808E842F2C28DEC4D4EF5B6E4
:10086300A28D50FCE5BBF9E5BAF508E8F452F2AA0B
:1008730008E9FB7F02020514740169700575C6C996
:100883008006E9700353C680E5C6F8E59E6870FBF1
:1008930022120B9543FE01C29043FE01C29043FE18
:1008A30002C29143FD02C28153F3FD53FDFD438F09
:1008B3000253F5FE53FFFE43F70143F3401208C909
:1008C300120A5802093553F1FD43F1011208DF758D
:1008D300C48075860075C52F75C2532243F408433F
:1008E300F41043F4042253F3FD53FDFD438F02221E
:1008F300C082C08379001208E9A28150227800A245
:1009030081500478007900E8240108E93400F9C330
:10091300E894F4E99401A2D265D03340E27901531B
:10092300F3FD900112E0A2E0928143FD02D083D057
:100933008222D2AF22C2AF2274F71204AE7E03E545
:10094300A0FF7B067A107980120841EFA2E05008DD
:10095300EB547FC3945450097E00900101E4F0806E
:10096300207A037B00120B9A1EEE70D3900101E0F4
:10097300700D7401F0FE7A647B00120BC580027E59
:1009830000EEF97F02020514EEC0E0E9FE7B067A71
:10099300107980120841EB547FF8C39428500479EE
:1009A300008020E8C3943C500479018016E8C39486
:1009B3004A50047902800CE8C394545004790380AC
:1009C300027904EE6970C4D0E0FE22C287C280536C
:1009D30086FD89C1E586A2E150FA00000000D287B6
:1009E30022C287D2805386FD89C1E586A2E150FAEF
:1009F30080E8C082C083C287D280ECF8EDF9E82496
:100A0300FF1CE934FFFDE84960175386FD8A828B9A
:100A130083E0F5C1A3AA82AB83E586A2E140DB8034
:100A2300F800000000D287D083D0822274F8120429
:100A3300AEE9FE8A828B8374FF2EC454F04480F99E
:100A43001209CE7C107D00AA82AB831209F58000C7
:100A53007F0102051453F37FD28743FD8053F3FED6
:100A6300D28043FD0179151209CE790F120AAA79B2
:100A73000E1209CE79251209CE791C1209CE7A15E8
:100A83007B00120BC5120A93120B0979290209CEB6
:100A9300EEC0E079801209CE7E3079201209E41E7F
:100AA300EE70F7D0E0FE22EEC0E0E9FE7950120AC4
:100AB300B8D0E0FE221209CEEEF91209E42274F74F
:100AC3001204AEE9FEEA4B60387C008C0874022500
:100AD30008F874013400F98A828B83E08882898361
:100AE300600CF08A828B83A3AA82AB838003742079
:100AF300F00CECC3941040D37A027B01EEF9120A96
:100B03002F7F02020514EEC0E079C01209CE7E40A9
:100B130079001209E41EEE70F7D0E0FE22C082C015
:100B230083E914600B14600814600914600A8010D0
:100B3300D290800CD2918008D2819001127401F07E
:100B4300D083D08222C082C083E914600B14600872
:100B530014600914600A800FC290800BC291800751
:100B6300C281900112E4F080D7C082C083E914608F
:100B73000B14600814600A14600C801463900180E5
:100B83000F639002800A638002900112E06401F017
:100B930080AE790002087BEBC313FBEA13FAEAF891
:100BA300EBF9E824FFFAE934FFFBE849601300009E
:100BB30000000000000000000000000000000080B2
:100BC300DD2274F81204AEEAFEEBFFEEF8EFF9E86B
:100BD30024FFFEE934FFFFE84960097AE87B03124A
:100BE3000B9A80E77F01020514C0E0C0D0C082C029
:100BF30083E591900113F0759B00E0F4F591D083A8
:100C0300D082D0D0D0E03274F71204AE750880756C
:100C1300090078081205587C007D007A007B601279
:100C230029AC740212046F79811211DE79911211C9
:100C3300DE90618674E5020F4474F71204AEE9FE98
:100C4300EAFF8B088C09ECA2E25004D2F08002C2C6
:100C5300F0906003A2F0E092E0F074035509F8907D
:100C63006001E054FC48F0E0C2E2120D3BA3E0D285
:100C7300E0F0E0D2E1F0E0D2E2120D3BE0543FF0CD
:100C83009061877479F09061B67416F09061BC74CA
:100C930007F09061807441F0ECA2E35004D2F0803D
:100CA30002C2F0A2F0E433F8EE3348906190F0EB27
:100CB3001313543F4440A3F09061937463F074079B
:100CC3006E600574036E70319061A27466F090617A
:100CD3009274CCF0906003E0D2E1F0E0D2E2F0EF66
:100CE3009061A5600A7401F090607E74D0802674D0
:100CF3000FF090607E7490801C9061A27410F0904D
:100D0300619274C0F0906003E0C2E1F0E0C2E2F0EF
:100D13009061A57401F0790112104CE5089061947B
:100D2300F0EF7A827B006005120F4A8003120D8177
:100D3300790012138C020F45F0E0C2E3F0E054CFC8
:100D4300F02274F51204AE8A088B098C0A8D0B12FB
:100D530015CD7A207B001215E8AA08AB09AC0AADC1
:100D63000B1215F27908121553906001E0D2E3F0EB
:100D7300759C7375A10079001216060211BF74F7F2
:100D83001204AE121013FE906194E0541FF9700226
:100D93007920900114EAF0A3EBF08982858208752B
:100DA300090074076E600574036E7052906012E45C
:100DB300F0A3F074047808120446120F2C120446B0
:100DC300AA08AB09E9C3941C4012120F3C12044653
:100DD300120EFA24A6F8E934F8020EE7E9C39414D4
:100DE300120F3C400A120446120EFA24BE80E61289
:100DF3000446120EFA24D9F8E934F8020EE7740611
:100E03006E600574026E704E906012E4F0A3F0748D
:100E1300057808120446120F2C120446AA08AB09DF
:100E2300E9C3941C400F120F1F120F062416F8E992
:100E330034F6020EE7E9C39414906192E0540FF97B
:100E4300EA4007120EF2245680E4120EF22476F8DA
:100E5300E934F6020EE774067808120446AC08ADCE
:100E63000974096E7039906012E4F0A31210241211
:100E73000446AA08AB09E9C3941C120F34401012AC
:100E83000446EAC3120EFE24F6F8E934F080551244
:100E93000446EAC3120EFE24D6F8E934F180457401
:100EA300046E600574086E7044906012E4F0A3123F
:100EB3001024120446AA08AB09E9C39414120F0FB5
:100EC300740A78084010120446EAC3120EFE243650
:100ED300F8E934EF800E120446EAC3120EFE2456DC
:100EE300F8E934EDF9906014E8F0A3E9F08053C316
:100EF300F8EB99120F0622EAC39508F8EB9509124D
:100F03000F0622F9E82CF8E93DF9E822120F132223
:100F1300906192E0540FF50875090022906192E008
:100F2300540FF9EAC3F8EB9922AC08AD0912102962
:100F330022120F137409780822120F13740778080A
:100F430022F07F0202051474F71204AE121013FC90
:100F5300906194E0541FF870027820900114EAF035
:100F6300A3EBF0888285820875090074076C60051D
:100F730074036C702174047808120446E508241481
:100F8300F8E509340512101C120446E5082480F81C
:100F9300E50934F6806E74066C600574026C701C8F
:100FA30074057808120446E50824B0F8E50934040A
:100FB30012101C120446E50824C080437406780806
:100FC300120446A808A90974096C7018E824D0F81B
:100FD300E9340712101C120446E50824C0F8E50999
:100FE30034F9802074046C600574086C701FE82465
:100FF3005CF8E9341212101C120446E50824F8F8D0
:10100300E50934F8F9906016E8F0A3E9F0020F451A
:10101300906190E0C313540F22F9906012E8F0A39B
:10102300E9F012102922900114E0F508A3E0F50974
:101033007405780822C082C083EA24B5547FF890EF
:101043006000E05480480210EBC082C0831210138A
:10105300F8E9900116F07407686005740368701767
:101063009061A0747FF090619A742AF0A3745AF08F
:101073009001167402802874016970119061A07444
:101083007FF090619A743FF0A3745A8012E9701054
:101093009061A0743AF090619A7433F0A37455F0A0
:1010A3008047C082C0839061B1E0D2E0803AC082C1
:1010B300C083E9F8906188E0F99061B1E06015E9D7
:1010C300A2E24010E8601FE5E170FC75E10BE591D9
:1010D300A2E650FAE0C2E0F0759100759B009060C3
:1010E3007F740FF079008001F0D083D0822274F5F1
:1010F3001204AE74FE120459E9FBEA75F00CA4F86D
:10110300AEF0E42EF9746039F9121294E08510827E
:1011130085118312129FE0C0E074011204A4D0E091
:10112300F0E8241B1214F6E0A2E61211C4600EE5E7
:101133000AA2E0B31211C460047909807AEAC39465
:101143000278005004796180097960EAC3139061E1
:10115300C0F0EAA2E050027840E50AA2E05008E8B5
:101163002420F8E93400F97E007F0080248C828DEE
:1011730083E088828983F08C828D83A3AC82AD83E4
:1011830088828983A3A882A983EE24010EEF340009
:10119300FF8B08C3EE9508EF1214E640D0EAC39420
:1011A3000240059061C0E4F0741C250AF582746066
:1011B3001214F9EBF07900740212046F7F04020534
:1011C30014E433F50AF508851082851183E5822539
:1011D30008F582E5833400F583E022E5E170FC89BC
:1011E300E122C082C083906079E0F9748069700461
:1011F30079808015900116E064027004749D800765
:10120300E0640160F774B129F90210EC74F612047A
:10121300AEE98A0875F00CA4F8AAF0E42AF9746020
:1012230039F9E824191214F6ECF0E8241A1214F62A
:10123300EBF0E82423FAE93400FBE82422FEE93446
:1012430000FF906001E05403C394024021E8241B93
:1012530012128A121294E412129FE4F0E82420126C
:10126300128AE8242112128A8E828F8380058E824D
:101273008F83E4F08A828B83F0E824181214F6E556
:1012830008F07F03020514F582E93400F583E4F0E6
:1012930022E8241CF582E93400F58322F0E8241DBA
:1012A300F582E93400F58322C082C083E990601A95
:1012B300F0906001E05403C394024013EB90601973
:1012C300F09060201212D9F0906018741880049086
:1012D3006018E40210EBE4F0A3F0A3F0A322C082B1
:1012E300C083E9600F1460251460451460521460D4
:1012F300740213899061E01212D97407F0906008A8
:101303001212D974FFF0906004740180789061E048
:10131300E4F0A3F0A37405F0A37480F0906008E4F4
:10132300F0A3F0A374FFF0A3F0906004740280555F
:101333009061E0E4F0A3F0A37421F0A3741080DBC8
:101343009061E0E4F0A374CBF0A3746DF0A3745D3B
:10135300F0906008E4F0A374FFF0A3F0A3F09060B2
:1013630004740380209061E074B7F0A3741DF0A3AC
:1013730074C1F0A37404F090600874FF1212DAF0E1
:101383009060047404F00210ECC082C083E9A2E10F
:10139300500D9061E97402F090600C7480800CA28F
:1013A300E09061E95004740180EDE40210EB74F500
:1013B3001204AE74FC120459851082851183EAF07D
:1013C300A3EBF0A3ECF0A3EDF0906194E0541FF9CC
:1013D30070047920803B7420C399FA8510828511AB
:1013E3008378081203BFEA780812035485108285B4
:1013F300118378081203E1740F1204A4780812030E
:10140300BFEA7808120354740F1204A47808120375
:10141300E174031204A4E0906198F074021204A42E
:10142300E0906197F0E9C39411401C74011204A485
:10143300E0906196F0E9C3941940118510828511FB
:1014430083E09061958009906196E4F0906195E462
:10145300F0740F1204A478081203BFE50845094588
:101463000A450B6042E09061FBF074111204A4E0A2
:101473009061FAF0E9C39411401B74101204A4E0C4
:101483009061F9F0E9C394194010740F1204A4E0B9
:101493009061F880099061F9E4F09061F8E4F090CC
:1014A3006194E0D2E78006906194E0C2E7F07404AF
:1014B3000211BCE5E170FC75E1082274F11204AE7F
:1014C30089D9EAF5D9EBF5D9ECF5D9EDF5D9780455
:1014D300800775B40785BCD908E8C39940F47F0831
:1014E3000205149400A2D265D03322E5E170FC75A5
:1014F300E10922F582E93400F58322C082C083909A
:101503006182E049F0439A010210ECC082C083E992
:10151300F4F8906182E058F0E59AA2E0E433F59A9A
:101523000210ECC2C732C0E0C0D0E8C0E0C082C045
:1015330083E5A1F8A2E450069001177401F0E8F4E2
:10154300F5A1C2C2D083D082D0E0F8D0D0D0E032AF
:10155300E942A7D2BA22E9F452A7C2BA2274F1121D
:1015630004AE8A0C8B0D8C0E8D0FE9FEA2AFE43313
:10157300FFC2AF1215CD900117E4F0EE600D7908AC
:1015830012155375C322759C37800B7910121553AE
:1015930075C332759C4775A20075A37DE50CF5A450
:1015A300850D09E509F5A57410780C12033BE50CCC
:1015B300F5A6906001E054CF4410F075A100C2C2BB
:1015C300EFA2E092AF7F0802051475940075C30083
:1015D30075A20075A30075A40075A50075A6007516
:1015E300A100C2C22275C302EAF5A2EBF5A32274DD
:1015F300F11204AE75C320EAF5A4EBF5A5ECF5A64C
:101603000215C8A2AFE433F8C2AF5394FD4394016B
:10161300E594A2E250FAE8A2E092AF22A2AFE4334B
:10162300F8C2AF5394FD5394FEE594A2E240FA80CE
:10163300E574F11204AE90014D78081203BF9001D6
:101643004D780C1203BF12173C12209412197A79A9
:1016530004120C3C12208212056B9001551203F008
:10166300121A4412046F7B107A1879EF1212AB909E
:101673006018E0D2E2F07A627B091210381210A5EA
:1016830075BC0075BCFF121A2F90014D1203F0793F
:101693000F1214BE9001591203F0120D458065908C
:1016A3000113E0A2E0503FE5D9F8FE740868701C0E
:1016B300EE90012412172C12172CF0900113E4F072
:1016C30079081215591209387900805B7981121152
:1016D300DE9001517808120373AA08AB09AC0AAD76
:1016E3000B790F1214BE121A38E50C543F700879A7
:1016F30001120B6C122094E50C547F70077A627B05
:10170300071220981214EE900113E0A2E650F8900D
:10171300607FE0608AE06404700A900151780C12E3
:10172300037380C212196D802312173312173322E9
:10173300F0E5D9A3F0E5D9A322120A937A487B06F0
:101743001221A67901120AC12212046F7F08020531
:101753001474F11204AE74F612045990014D12037D
:10176300F074061204A41203FC90014D1203F074EA
:10177300021204A41203FC851082851183E4F01283
:10178300173C900127E0C0E074011204A4D0E0F0FC
:10179300900128122056A3E0F50CE4F50DF50EF5A3
:1017A3000F7408780C1203547808790C1203ACA355
:1017B300E0F50CE4F50D7410780C120354780879F5
:1017C3000C1203ACA3E0F50CE4F50E7418780C12BC
:1017D30003547808790C1203AC90012078081203A3
:1017E300E112197A900126E0F9120C3C12204B12F7
:1017F300208212056B9001551203F0121A44120451
:101803006F7B107A1879EF1212AB79911211DE12F5
:1018130010A57AC87B00120BC59001591203F01270
:101823000D45121A2F8063740165D9703BE5D9F514
:101833000C6401700A8510828511837401800EE5A2
:101843000C640370098510828511837403F0121AE6
:101853003879011210B17901120B2085108285119C
:1018630083E0F9740A02174C79811211DE7991121F
:1018730011DE121A3B74021204A478081203BFE5A6
:1018830008A2E050057901120B6C74021204A4C083
:1018930082C08390012078081203BFD083D082785E
:1018A300081201C250B090015178081203BF7406A8
:1018B3001204A4780812038674061204A41203F017
:1018C30074011204A4E0F91214BE1214EE90011371
:1018D300E0A2E650F890607FE07045900113E0A22B
:1018E300E4502090015178081203BF74021204A43B
:1018F300780812038674021204A412056B12195D90
:1019030012046F900113E0A2E0500302182AE0A230
:10191300E440030218707A287B0712208B021870A8
:10192300E06404702F90015178081203BF7402120F
:1019330004A4780812038674021204A412056B121D
:10194300195D12046F7A377B0712208B900113E421
:10195300F002187012196D02186679027C627D0715
:101963007A597B061221AE740422121A267AE87B76
:1019730003120BC57909221220677A0122C082C0A3
:1019830083122061790412207412056B90015512A1
:1019930003F0121A4412046F7C207BEF7A1979004A
:1019A30012120F1210A57C257D017A00900124E00C
:1019B30014F91210F1790090015D1203F0121A2C40
:1019C3008015121A267C257D017A00900124E014EB
:1019D300F91210F1121A381214B679001216069081
:1019E3000113E0A2E650F890607FE0700F900113BE
:1019F300E0A2E050D079811211DE80C9E064017069
:101A0300C1790012161F121A38906078E0700A121A
:101A13002848E990012EF0800512203F7900D083F9
:101A2300D08222E0F912244A22121560794012145E
:101A3300FE12093522900113E4F090607F740FF0D9
:101A4300221213B174042274F11204AE74D7120477
:101A53005990014D1203F074151204A41203FC9063
:101A6300014D1203F074111204A41203FC90011827
:101A7300C08274211204A4AC82AD83758301D08229
:101A83007408120415740B1204A4E4F0A3F074098F
:101A93001204A4E4F0A3F090014D1203F0740112B8
:101AA30004A41203FC90014D1203F074191204A450
:101AB3001203FC90014D1203F0740D1204A41203DF
:101AC300FC90014D1203F0741D1204A41203FC12C6
:101AD3002061900126E0F912207412056B900155E4
:101AE3001203F0121A4412046F900127E004FC7BE6
:101AF300EF7A19790012120F12204B1210A59001E0
:101B03002078081203BF900161780C1203BF780894
:101B1300790C1201D29001657808120373AA08ABFD
:101B230009AC0AAD0BE4F9121A2C790012160690CF
:101B3300012EE4F0021C12121A3874011204A47864
:101B4300081203BFE508A2E050057901120B6C905F
:101B5300012EE06003021C1274011204A47808121F
:101B630003BFE50854076003021BFA74191204A4A7
:101B730078081203BF740D1204A478081203737457
:101B8300051204A478081203E174051204A478086A
:101B93001203BF900165780C1203BF7808790C1209
:101BA30001D274051204A4780C1203BF7401120449
:101BB300A4780C1203737808790C120252E5091207
:101BC300203512055479017CB37D067AAB7B06126E
:101BD300196712046F74091204A4E0F508A3E0F571
:101BE3000912203512055479027CBE7D067AB77B33
:101BF3000612196712046F74011204A412056B799B
:101C0300037C627D077AC37B0612196712046F1285
:101C130008F3E964017034900117E0600890012E25
:101C2300740202201E90012E7401F0790090015D70
:101C33001203F012202C906078E0FC741D1204A4AF
:101C4300ECF0A3E4F0A3F0A3F0801712093BE960E2
:101C53001190012E7403F0790090015D1203F012CC
:101C6300202C1214B6900113E0A2E650F890607F86
:101C7300E06003021E1B900113E0A2E04003021E7A
:101C830077900127E065D96003021E059001517822
:101C9300081203BF74011204A47808120386E5D95D
:101CA300F50CE5D9F508E4F50DF50EF50FF509F595
:101CB3000AF50B74087808120354780C7908120398
:101CC300AC85D908E4F50974107808120354780C2C
:101CD30079081203AC74151204A4780C1203E112F0
:101CE30011E5E9FE607774151204A478081203BFA6
:101CF300900169780812039974211204A4E58225DE
:101D030008F8E5833509F9740B1204A4EEFA339548
:101D1300E0FBE02AFAA3E03BFB88828983E0FC3303
:101D230095E0FDEAC39CFAEB9DFB740B1204A4EA55
:101D3300F0A3EBF0EE88828983F0740B1204A4E025
:101D4300F508A3E0F50974037808120436E509449D
:101D530080F974091204A4E508F0A3E9F0741512DC
:101D630004A4C082C08374111204A478081203BFB0
:101D7300D083D08278081201C2503D7AE87B0612E4
:101D830017437AF97B061220987A197B0712208B66
:101D93007903120B207901120B487AE87B03120BAB
:101DA300C5790902202790015178081203BF740DE9
:101DB3001204A4780812038674111204A41203F007
:101DC30074051204A41203FC74051204A478081207
:101DD30003BF900151780812037374111204A4789D
:101DE300081203E174151204A478081203BF9001CA
:101DF3006D780812037374051204A478081201980D
:101E030070A479811211DE90012EE0600B7C2E7D8F
:101E1300017A0079011210F190607FE06401601F84
:101E230074151204A4C082C08390012078081203A1
:101E3300BFD083D08278081201986003021B3A1244
:101E430009387901120B20121A3890012EE0F87428
:101E530001687055741D1204A4C082C08390607819
:101E6300122056D083D08278081201986003022092
:101E73001F021C20E0A2E2502790015178081203B0
:101E8300BF74191204A4780812038690016D7808B0
:101E93001203BF740D1204A47808120386021E1BDA
:101EA30090607F121A26021D9DE8600302201F80A6
:101EB3001290015178081203BF740D1204A478081C
:101EC30012038674111204A478081203BF85080C48
:101ED30085090D850A0E850B0F900151780C1203AD
:101EE3007374111204A4780C1203E1900120780892
:101EF30012019870BC74191204A478081203BF74F9
:101F03000D1204A4780812037374051204A478084C
:101F13001203E174051204A478081203BF9001654B
:101F2300780C1203BF7808790C1201D274051204DD
:101F3300A4780C1203BF74011204A4780C12037367
:101F43007808790C120252AE08AF09EF122035124D
:101F5300055479017CB37D067AAB7B0612196712AF
:101F6300046F74011204A4780C1203BF85108285D8
:101F73001183E48008851082851183E004F09001C9
:101F83006178081203BF780C7908120252E50C45F8
:101F93000D450E450F70DE74011204A412056B7912
:101FA3000374041204A4E0FA74472AFC740734008F
:101FB300FD7AC37B0612196712046F900126E0F5C0
:101FC30008780812055C900127E0F50878081205E7
:101FD3005C900125E0F508780812055C740C120486
:101FE300A412056F8E088F0978081205587414120D
:101FF30004A412056B74241204A412056B740F124B
:1020030004A4E0F974101204A41203F012227574EC
:102013000F12046F1227F1E990012EF012203F9066
:10202300012EE0F9742902174C121560790012167B
:1020330006223395E0F50AF50B78082212093812C7
:1020430015CD794012150E22900125E0FA7B00127E
:10205300103822E0F508E4F509F50AF50B22122001
:10206300677A002279011210B1120C0A7C167B20C8
:1020730022120C3C7A627B091210381220822279D8
:10208300021212E190014D221221A67903120AC114
:10209300227A617B061221A67902120AC1229001DB
:1020A30013E4F01208949001247409F090012D7444
:1020B30002F07901120B20120A937A9C7B05121706
:1020C300437AAD7B051220987ABE7B0512208B12D2
:1020D30008F3E9640170F8122490E9F87401687058
:1020E3000D121634121754E9640170F580F6E86096
:1020F3000302218E1224F4E9900125F01225ADE9A3
:10210300A3F0122651E9A3F01226E1900120120355
:10211300FC90012078081203BFE5089001281221E2
:10212300931203BFE5099001291221931203BF748F
:1021330010780812033BE50890012A122193120339
:10214300BF7418780812033BE50890012BF0900147
:1021530026E0F8740768600D74036860081227812D
:10216300E990012CF0121980E9F874026860F674A2
:1021730003686080121A4AE9F874016860F6740211
:102183006860E274036870030220F77A007B002220
:10219300F0900120780822C0E0E589F45289C2C595
:1021A300D0E032EA2400EB3480FB2274F21204AE56
:1021B30074FE120459851082851183ECF0A3EDF0AF
:1021C300890E74101204A478081203BF7F007E00E6
:1021D3008012E493C0E08F0C742F250C122635D0A7
:1021E300E0F00E0F8E0CEA250CF582EB122639E493
:1021F3009370DF7E00AA08AB09AC0AAD0B122890DE
:102203008A08A8088010C0E08F08742F25081226BA
:1022130035D0E0F00E0F8E08E82508F582EB122684
:1022230039E070E27E008009E4938A828B83F00EAA
:102233000F8F08742F2508F874013400F9E8FAE9C0
:10224300FBEEF8851082851183E028F8A3E03400C3
:10225300F988828983E49370CF8A828B83E4F07A4E
:102263002F7B01A90E120AC1740212046F7F0702A9
:10227300051474F11204AE74F5120459E985108241
:10228300851183F08A088B098C0A8D0B7E027401F9
:102293001204A4AC82AD83758301758271740A1232
:1022A30004157F0274261204A4E0C39464400A0F49
:1022B30080077A967B00120BC51226CF74016870D3
:1022C30009EEC39403500A0E8007E87004EE60041D
:1022D3001EEE703112263E74281204A4E0F8740135
:1022E3001204A4E58228F582E583122639E075F00D
:1022F30011A4F8A9F074B228FA748739FB79031290
:102303000AC102241F74016E705474271204A412AC
:10231300243D12055479017C147D067A0B7B061249
:1023230025A712046F74261204A4E0244BF50CE4D1
:10233300340912243112055412259D12046F742698
:102343001204A412243D12055479038F0C745925E9
:102353000CFC74073400FD7AE37B05022419740234
:102363006E706374221204A4E0F50CA3E0F50DE48F
:10237300F50EF50F780C12055479017CB37D067ABE
:10238300AB7B061225A712046F74241204A4E0F594
:102393000CA3E012243112055479027CBE7D067A27
:1023A300B77B061225A712046F7808120554790328
:1023B30074041204A4E0FA74592AFC74073400FD6F
:1023C3007AC37B06805074036E70517808120554EB
:1023D300790174041204A4E0FA74502AFC740734DB
:1023E30000FD7AC37B061225A712046F741A120428
:1023F300A412056B79027C627D077ACB7B061225DA
:10240300A712046F741E1204A412056B79037C6275
:102413007D077AD37B061225A712046F1227D36098
:10242300030222B5740B12046F7F08020514F50D25
:102433003395E0F50EF50F780C22E0F50CE4F50D7D
:10244300F50EF50F780C2274F51204AEE9FE8E0832
:10245300E4F509F50AF50B780812055479017C6255
:102463007D077ADB7B061225A712046F7A087B8728
:102473007902120AC17A197B877903120AC1790397
:10248300120B207901120B487F0402051474F81211
:1024930004AE120A937ACF7B857901120AC1908523
:1024A300DC1227DA75080080077A647B00120BC5FB
:1024B3001226CF7010E508701F7508017AD57B8549
:1024C30012283E800E740168700E7401650870084E
:1024D3001224E37903120AC11227D370CC022830E5
:1024E300750800AA82AB837902120AC17A857B87B9
:1024F3002274F31204AE7E177A647B00120BC512AA
:102503000A93750C85750D87AA0CAB0D7903120A16
:10251300C180077A967B00120BC51226CF7009EE95
:10252300C39465500F0E800C7401687007EEC3945A
:102533001840011E74176E7006AA0CAB0D800F7441
:10254300656E70067A747B8780047A637B87790370
:10255300120AC18E08E4F509F50AF50B780812058D
:102563005479017C627D077AE37B051225A7120467
:102573006FE508244BF508E43409F5093395E0F5D4
:102583000AF50B780812055412259D12046F1227C1
:10259300D37080EEF97F0602051479027CF57D0580
:1025A3007AEC7B051221AE74042274F81204AE7423
:1025B300F9120459851082851183AC82AD8375832A
:1025C3000175827B7407120415F508120A9312260B
:1025D3003E7A827B017903120AC180077A967B00D7
:1025E300120BC51226CF700BE508C39406500F05D6
:1025F30008800B7401687006E508600215088508F9
:1026030082AE82EE75F012A4F8A9F0748228FA74EF
:102613000139FB1226D570C4851082851183E582AA
:102623002EF582E583122639E0F9740712046F024E
:102633002832F58274013400F583227A967B8779F8
:1026430001120AC17AA47B877902120AC12274F3A8
:102653001204AE120A937AFA7B8512276A80077AEC
:10266300967B00120BC51226CF7009EEC39403505C
:102673000C0E80097401687004EE60011E8E0874EC
:10268300292508F5827408122639E493FF8F08E49C
:10269300F509F50AF50B780812055479027C147DC7
:1026A300067A627B071225A712046FEE7006AA0C46
:1026B300AB0D800F74036E70067A747B8780047A87
:1026C300637B871226D57097EF02259712098BE952
:1026D300F8227903120AC11208F3E964012274F3A0
:1026E3001204AE120A937A1B7B8612276A80077A3A
:1026F300967B00120BC51226CF7009EEC3940450CB
:102703000C0E80097401687004EE60011E8E08755A
:10271300090074027808120446742D2508F58274A2
:10272300083509F58378081203CE78081205547921
:10273300027C2C7D067A627B071225A712046FEEBA
:102743007006AA0CAB0D800F74046E70067A747B4E
:102753008780047A637B871226D57093AA08AB0916
:10276300AC0AAD0B0225987901120AC1750C857567
:102773000D87AA0CAB0D7903120AC17E002274F8EF
:102783001204AE750800120A937A357B867901121A
:102793000AC190863F1227DA80077A967B00120BD4
:1027A300C51226CF7010E508701F7508017A437BA8
:1027B3008612283E800E740168700E7401650870DD
:1027C300081224E37903120AC11227D370CC805D67
:1027D3001208F3E96401221227DE22AA82AB83796D
:1027E30002120AC17A857B877903120AC12274F81F
:1027F3001204AE120A937A837B867901120AC1907E
:10280300868C12288980077A967B00120BC51226C4
:10281300CF7005122837800B740168700B7508029E
:102823001224E67903120AC11227D370DAA9087FAA
:10283300010205147508037A9A7B867902120AC18C
:102843007A747B872274F81204AE120A937A727B2D
:10285300867901120AC19086A412288980077A9684
:102863007B00120BC51226CF7005122837800B741C
:102873000168700B7508021224E67903120AC1126B
:1028830027D370DA80A71227DE7508022274F112AB
:1028930004AE74FB12045974011204A4EAF0A3EB0E
:1028A300F0A3ECF0A3EDF07A417B0174011204A4D0
:1028B300C082C08390014D78081203BFD083D082B9
:1028C30078081201AD851082851183501C7401F0C4
:1028D3001204A478081203BF780812032A740112A1
:1028E30004A478081203E18002E4F074011204A442
:1028F300780C1203BF90016178081203BF780C793A
:10290300081202ECE50824308A828B83F0A3AA82A2
:10291300AB8374011204A4780C1203BF9001617895
:10292300081203BF780C79081202EC74011204A494
:10293300780C1203E174011204A478081203BFE5B2
:10294300084509450A450B70A2851082851183E06D
:10295300A2E0500B8A828B83742DF0A30AAB838A87
:10296300828B83E41229A278417901801D8A828BAC
:1029730083E0FC88828983E08A828B831229A2EC1C
:1029830088828983F0A3A882A983C3E89AE99B403C
:10299300DC7A417B01740512046F7F08020514F091
:1029A300EA24FF1AEB34FFFB2274F81204AE740816
:1029B3001204A4E0F8A3E0F98A828B838003ECF08D
:1029C300A3E8FEE9FFEE24FF18EF34FFF9EE4F70A2
:0629D300ED7F0102051476
:04000005000000D324
:00000001FF
