:020000040000FA
:030000000200E318
:03002B00020A586E
:03005300020A5B43
:03006B00020A8501
:10008300020A3A00000080FB120113B900030200C8
:10009300CDE4900101784D79018002F0A3D8FCD919
:1000A300FA90014DAA82AB8390011678B47901804E
:1000B30015E493A3AC82AD838A828B83F0A3AA82D7
:1000C300AB838C828D83D8E9D9E77582007583155C
:1000D30074001200F575828675830074001200F5B2
:1000E30075D0007581BF751001751101759F0002F0
:1000F300008BC09FF59FE473D09F22D083D082C032
:100103009FE493C0E0740193C0E0740293F59F22CF
:1001130079012200000000010000007176412910DE
:10012300270000640000000A000000E80300000745
:10013300000000FFFFFFFFFFFF020400FF010305B4
:1001430006040602070308094746534B203235309D
:100153006B2031363020201E00004746534B2020B1
:1001630020314D20313630201F1E00004746534BAF
:10017300202020314D20323530201F1E00004746FD
:10018300534B202020324D20333230201F1E0000DD
:100193004746534B202020324D20353030201F1E40
:1001A30000004D534B20203235306B202D2D2D2058
:1001B3001F1E00004D534B20203530306B202D2D5A
:1001C3002D20201F00001200FEFC2B001200FEB8A1
:1001D3002B001200FED32B001200FE062B00120090
:1001E300FE462B001200FE5E2B001200FE6A2B005F
:1001F3001200FE632C001200FE682C001200FE7B2E
:1002030029001200FECB29001200FE1C260012005A
:10021300FE3126001200FE3F26001200FE78260063
:100223001200FEAA26001200FEEC26001200FE03B6
:1002330027001200FE0E27001200FE5627001200B0
:10024300FE112A001200FE3F2A001200FE672A0058
:100253001200FE952A001200FEB22A001200FEDFF1
:100263002A001200FE0216001200FE3416001200CD
:10027300FE3D17001200FE7917001200FE4219001E
:100283001200FE2C1A001200FE401A001200FE9902
:100293001A001200FEA51A001200FEE71A0012004F
:1002A300FED41B001200FEDD1B001200FE071C0023
:1002B3001200FEA31C001200FED91C001200FE84D3
:1002C3001D001200FEA91D001200FEAE1E0012004A
:1002D300FEB81E001200FEE81E001200FEFA1E0009
:1002E3001200FE0A1F001200FE8A28001200FE926E
:1002F30028001200FE9B28001200FE0829001200AD
:10030300FE2529001200FE3129001200FE452900B6
:100313001200FE6329001200FE910A001200FEB1D2
:100323000B001200FEDD0D001200FEA90E001200EC
:10033300FE221F001200FE2C1F001200FEF31F00FE
:100343001200FEC821001200FE0E22001200FE75EC
:1003530022001200FE2E23001200FED423001200FE
:10036300FE6424001200FE0425001200FE7725001F
:100373001200FED125001200FE6E27001200FE3689
:100383002C00E066701008A3E066700A08A3E0661C
:10039300700408A3E06622C3E09608A3E09608A3CE
:1003A300E09608A3E096A2D265D03322C3E0960874
:1003B300A3E09608A3E09608A3E09622080808EABB
:1003C300C0E0EBC0E086F0E7A4FA180986F0E7A4E2
:1003D3002AFA180986F0E7A42AFA180986F0E7A48E
:1003E3002AFA1986F0E7A4FBE5F02AFA190886F041
:1003F300E7A42BFBE5F03AFA190886F0E7A42BFBF8
:10040300E5F03AFA18180986F0E7A4C5F02BFBE4E7
:100413003AFA1908E7C5F0C6A426F6E5F03BFBE473
:100423003AFA1886F0E7A4F6E5F00826F6E43B0866
:10043300F6E43A08F6D0E0FBD0E0FA22E4CFC0E0DD
:10044300E4CEC0E0E4CDC0E0E4CCC0E075F020C36E
:10045300E633F608E633F608E633F608E633F6182D
:100463001818EC33FCED33FDEE33FEEF33FFC3EC32
:100473009709ED9709EE9709EF97191919400FFF9F
:10048300EC97FC09ED97FD09EE97FE191906D5F0D7
:10049300BEECF709EDF709EEF709EFF7191919D0D3
:1004A300E0FCD0E0FDD0E0FED0E0FF2212051718FB
:1004B300181812043F1205061919192212050619F4
:1004C3001919080808E618181820E7E012043F1263
:1004D300051718181822090909E719191920E7DC63
:1004E300080808E618181820E70302043F12051746
:1004F30018181812043F12051718181812050619B0
:10050300191922E4C397F709E497F709E497F70960
:10051300E497F722E4C396F608E496F608E496F621
:1005230008E496F6226016080808C6C313C618C660
:1005330013C618C613C618C613C6D5E0EA22700937
:10054300080808226016181818C6C333C608C6332D
:10055300C608C633C608C633C6D5E0EA22E026F687
:1005630008A3E036F608A3E036F608A3E036F62241
:10057300E026F008A3E036F008A3E036F008A3E095
:1005830036F022E056F608A3E056F608A3E056F646
:1005930008A3E056F622E647F60809E647F60809F7
:1005A300E647F60809E647F622E0F608A3E0F60870
:1005B300A3E0F608A3E0F622E493F608740193F6A9
:1005C30008740293F608740393F622E6F008A3E690
:1005D300F008A3E6F008A3E6F022E0FAA3E0FBA309
:1005E300E0FCA3E0FD22EAF0A3EBF0A3ECF0A3ED23
:1005F300F022CAC0E0E6F0A308DAFAD0E0FA22CA91
:10060300C0E0E0A3C582CCC582C583CDC583F0A37A
:10061300C582CCC582C583CDC583DAE6D0E0CA22C4
:10062300600D08C6A2E713C618C613C6D5E0F322A9
:10063300700422600D18C6C333C608C633C6D5E09E
:10064300F41822251010AF08F51040021511800888
:10065300F51040021511D2AF22C0D0251010AF08FB
:10066300F510500205118008F51050020511D2AFA4
:10067300D0D0222510F58210AF08F51040021511D5
:100683008008F51040021511D2AF85118322251081
:10069300F582E43511F583222510C582C0E0E5110A
:1006A30034FFC583C0E0E510C3958224F810AF087A
:1006B3008583118582108008858311858210D2AFCE
:1006C300CEF0A3E520F0A37808E608F0A3DEFAEF66
:1006D300F0A3E58124FAF8E608F0A3E608F0A3E620
:1006E30008F0A30808E608F0A3E608F0A3158115AF
:1006F30081D0E0FED0E0F8158115811581E8C0E0D6
:10070300EEC0E022851183851082E0A3FEE0A3F50D
:10071300207808E0A3F608DFFAE0A3FFE0A3C0E037
:10072300E0A3C0E0E0A3C0E0E0A3C0E0E0A3C0E03A
:1007330010AF088582108583118008858210858318
:1007430011D2AFD083D0820200FB740480067402FE
:1007530080027401C0E0F404120676D0E01205F5BD
:10076300227404800474028000CCC0E0EDC0E0E594
:1007730010C39CCCAD1150011D10AF068C108D1110
:1007830080068C108D11D2AF120602D0E0FDD0E0AE
:10079300FC22434332353431205045522054657393
:1007A300742000507573682027427574746F6E202F
:1007B30031272000546F20426567696E2020202076
:1007C30020202020004D6F64653F004D61737465E8
:1007D300720052656D6F7465004368616E3A202044
:1007E3002000465245513A20202000204D487A00EF
:1007F3005061636B6574204C656E6774683F20209D
:10080300005061636B65743A2000206279746573EC
:10081300004E756D2E206F66205061636B65747397
:100823003F00205061636B657473004C4E41206739
:1008330061696E3F004C4F570048494748004D617E
:1008430073746572204D6F646520285478290050B5
:10085300636B74733A2000547820426561636F6E52
:10086300202831306D7329004E6F20426561636F1C
:100873006E205369676E616C00436F6D6D616E64CA
:100883003A005265737461727420546573743F0047
:100893004E657720546573743F0052657472793FD7
:1008A300005045523A2020200020252E0052535359
:1008B300493A20002064426D004E23204F4B3A20DA
:1008C300004352433A202020004C6F73743A202097
:1008D300004552524F5220434F44453A20004D7534
:1008E3006C7469706C65204D4153544552730055C7
:1008F3007365206F6E65204D415354455200536517
:1009030074207570206E657720746573743A005097
:100913007265737320454D2052455345540052650B
:100923006D6F74653A204F4E4C494E450052656DCC
:100933006F74653A204F46464C494E4500202020AF
:10094300202020201F00202020202020201E0020E7
:1009530020202020201E1F00001E1F2020202020DA
:100963003E3E427574746F6E31001F20202020209C
:10097300203E3E427574746F6E31001E202020208D
:1009830020203E3E427574746F6E31004D4F4420FB
:100993002052415445204445560020202020206207
:1009A300707320206B487A004746534B2032353012
:1009B3006B2031363020201F004746534B20202028
:1009C300314D2031363020201F004746534B202025
:1009D30020314D2032353020201F004746534B2015
:1009E3002020324D2033323020201F004746534B06
:1009F300202020324D2035303020201F004D534B16
:100A030020203235306B202D2D2D20201F004D53FB
:100A13004B20203530306B202D2D2D20201F000A38
:100A230010203F64000000E803000010270000A02E
:100A330086010040420F00C0E0C0D0C082C083E501
:100A430091900113F0759B00E0F4F591D083D0826F
:100A5300D0D0D0E032C2C732C0E0C0D0E8C0E0C0DE
:100A630082C083E5A1F8A2E450069001177401F057
:100A7300E8F4F5A1C2C2D083D082D0E0F8D0D0D0C0
:100A8300E032C0E0E589F45289C2C5D0E03274F0A7
:100A930012069B90014D78081205AC90014D780C1D
:100AA3001205AC120B991214F3120DD7790412022A
:100AB3006B1214E11207649001551205DD120EA3A7
:100AC30012065C7B107A1879EF1202B3906018E07B
:100AD300D2E2F07A627B0912028312028F75BC00A4
:100AE30075BCFF120E8E90014D1205DD790F1202B7
:100AF300D19001591205DD1202718065900113E056
:100B0300A2E0503FE5D9F8FE740868701CEE90012E
:100B130024120B89120B89F0900113E4F079081267
:100B230002EF1201F97900805B79811202A1900131
:100B3300517808120560AA08AB09AC0AAD0B790F0E
:100B43001202D1120E97E50C543F7008790112027C
:100B53004D1214F3E50C547F70077A5B7B09121472
:100B6300F71202D7900113E0A2E650F890607FE0FD
:100B7300608AE06404700A900151780C1205608069
:100B8300C2120DCA8023120B90120B9022F0E5D9EA
:100B9300A3F0E5D9A3221202297A417B081203317B
:100BA30079011202352212065C7F0802070774F0EE
:100BB30012069B74F612064690014D1205DD74066B
:100BC3001206911205E990014D1205DD7402120619
:100BD300911205E9851082851183E4F0120B999037
:100BE3000127E0C0E07401120691D0E0F0900128E3
:100BF3001214B5A3E0F50CE4F50DF50EF50F74082A
:100C0300780C1205417808790C120599A3E0F50CCC
:100C1300E4F50D7410780C1205417808790C12056F
:100C230099A3E0F50CE4F50E7418780C12054178DD
:100C330008790C12059990012078081205CE120D3F
:100C4300D7900126E0F912026B1214AA1214E112D2
:100C530007649001551205DD120EA312065C7B108A
:100C63007A1879EF1202B379911202A112028F7AE4
:100C7300C87B0012025F9001591205DD1202711246
:100C83000E8E8063740165D9703BE5D9F50C640160
:100C9300700A8510828511837401800EE50C64034C
:100CA30070098510828511837403F0120E97790100
:100CB3001202957901120241851082851183E0F9B0
:100CC300740A020BA979811202A179911202A1126D
:100CD3000E97740212069178081205ACE508A2E09B
:100CE3005005790112024D7402120691C082C0832D
:100CF30090012078081205ACD083D08278081203C3
:100D0300AF50B090015178081205AC7406120691E9
:100D1300780812057374061206911205DD74011228
:100D23000691E0F91202D11202D7900113E0A2E674
:100D330050F890607FE07045900113E0A2E45020EA
:100D430090015178081205AC7402120691780812CA
:100D530005737402120691120764120DBA12065C2F
:100D6300900113E0A2E05003020C87E0A2E44003E9
:100D7300020CCD7A217B091214EA020CCDE0640443
:100D8300702F90015178081205AC74021206917805
:100D9300081205737402120691120764120DBA1237
:100DA300065C7A307B091214EA900113E4F0020C1A
:100DB300CD120DCA020CC379027C5B7D097A527B8A
:100DC30008120337740422120E857AE87B03120299
:100DD3005F7909221214C67A0122C082C0831214D9
:100DE300C079041214D31207649001551205DD1261
:100DF3000EA312065C7C207BEF7A1979001202ADF8
:100E030012028F7C257D017A00900124E014F912EF
:100E1300029B790090015D1205DD120E8B80151285
:100E23000E857C257D017A00900124E014F91202DD
:100E33009B120E971202CB790012030D900113E05F
:100E4300A2E650F890607FE0700F900113E0A2E0FB
:100E530050D079811202A180C9E0640170C1790088
:100E6300120313120E97906078E0700A120373E96D
:100E730090012EF0800512149E7900D083D0820257
:100E830000FBE0F9120343221202F579401202DD5E
:100E93001201F322900113E4F090607F740FF022AB
:100EA3001202C574042274F012069B74D71206460C
:100EB30090014D1205DD74151206911205E990019A
:100EC3004D1205DD74111206911205E9900118C047
:100ED300827421120691AC82AD83758301D0827432
:100EE30008120602740B120691E4F0A3F0740912BF
:100EF3000691E4F0A3F090014D1205DD7401120692
:100F0300911205E990014D1205DD74191206911233
:100F130005E990014D1205DD740D1206911205E9E4
:100F230090014D1205DD741D1206911205E912148C
:100F3300C0900126E0F91214D312076490015512F0
:100F430005DD120EA312065C900127E004FC7BEF83
:100F53007A1979001202AD1214AA12028F9001209D
:100F630078081205AC900161780C1205AC78087909
:100F73000C1203BF9001657808120560AA08AB093B
:100F8300AC0AAD0BE4F9120E8B790012030D90013C
:100F93002EE4F0021071120E977401120691780874
:100FA3001205ACE508A2E05005790112024D90014B
:100FB3002EE0600302107174011206917808120585
:100FC300ACE50854076003021059741912069178AE
:100FD300081205AC740D12069178081205607405A9
:100FE30012069178081205CE74051206917808123C
:100FF30005AC900165780C1205AC7808790C1203E6
:10100300BF7405120691780C1205AC740112069197
:10101300780C1205607808790C12043FE509121464
:101023009412074D79017CAC7D087AA47B08120DDC
:10103300C412065C7409120691E0F508A3E0F509F1
:1010430012149412074D79027CB77D087AB07B089D
:10105300120DC412065C740112069112076479031F
:101063007C5B7D097ABC7B08120DC412065C1201FD
:10107300EDE964017034900117E0600890012E746B
:101083000202147D90012E7401F0790090015D122B
:1010930005DD12148B906078E0FC741D120691EC50
:1010A300F0A3E4F0A3F0A3F080171201FFE96011AD
:1010B30090012E7403F0790090015D1205DD121486
:1010C3008B1202CB900113E0A2E650F890607FE010
:1010D300600302127A900113E0A2E040030212D6E9
:1010E300900127E065D960030212649001517808EA
:1010F3001205AC74011206917808120573E5D9F54F
:101103000CE5D9F508E4F50DF50EF50FF509F50A2B
:10111300F50B74087808120541780C7908120599C3
:1011230085D908E4F50974107808120541780C791B
:10113300081205997415120691780C1205CE120245
:10114300A7E9FE6077741512069178081205AC9032
:10115300016978081205867421120691E582250833
:10116300F8E5833509F9740B120691EEFA3395E02D
:10117300FBE02AFAA3E03BFB88828983E0FC3395FA
:10118300E0FDEAC39CFAEB9DFB740B120691EAF0B7
:10119300A3EBF0EE88828983F0740B120691E0F5DD
:1011A30008A3E0F50974037808120623E5094480CF
:1011B300F97409120691E508F0A3E9F07415120613
:1011C30091C082C083741112069178081205ACD0C5
:1011D30083D08278081203AF503D7AE17B08120B6B
:1011E300A07AF27B081214F77A127B091214EA79B7
:1011F3000312024179011202477AE87B0312025F6C
:10120300790902148690015178081205AC740D1205
:101213000691780812057374111206911205DD7494
:10122300051206911205E974051206917808120554
:10123300AC90015178081205607411120691780878
:101243001205CE741512069178081205AC90016D43
:1012530078081205607405120691780812038570E8
:10126300A479811202A190012EE0600B7C2E7D01F6
:101273007A00790112029B90607FE06401601F7421
:1012830015120691C082C08390012078081205AC24
:10129300D083D08278081203856003020F9912016C
:1012A300F97901120241120E9790012EE0F87401B0
:1012B300687055741D120691C082C08390607812C5
:1012C30014B5D083D0827808120385600302147E9C
:1012D30002107FE0A2E2502790015178081205AC7A
:1012E3007419120691780812057390016D7808122B
:1012F30005AC740D120691780812057302127A90E8
:10130300607F120E850211FCE8600302147E8012D6
:1013130090015178081205AC740D120691780812E9
:101323000573741112069178081205AC85080C85B3
:10133300090D850A0E850B0F900151780C1205607B
:101343007411120691780C1205CE900120780812C0
:10135300038570BC741912069178081205AC740DDC
:101363001206917808120560740512069178081226
:1013730005CE740512069178081205AC90016578C4
:101383000C1205AC7808790C1203BF740512069190
:10139300780C1205AC7401120691780C1205607872
:1013A30008790C12043FAE08AF09EF121494120728
:1013B3004D79017CAC7D087AA47B08120DC412061A
:1013C3005C7401120691780C1205AC8510828511AC
:1013D30083E48008851082851183E004F090016125
:1013E30078081205AC780C790812043FE50C450D1A
:1013F300450E450F70DE74011206911207647903DE
:101403007404120691E0FA74402AFC74093400FD56
:101413007ABC7B08120DC412065C900126E0F50825
:101423007808120755900127E0F508780812075548
:10143300900125E0F5087808120755740C120691FF
:101443001207688E088F0978081207517414120660
:10145300911207647424120691120764740F120622
:1014630091E0F974101206911205DD12033D740F19
:1014730012065C12036DE990012EF012149E900186
:101483002EE0F97429020BA91202F5790012030D5B
:10149300223395E0F50AF50B7808221201F91202BE
:1014A300FB79401202E322900125E0FA7B0012024D
:1014B3008322E0F508E4F509F50AF50B221214C6B8
:1014C3007A002279011202951202657C167B202292
:1014D30012026B7A627B091202831214E1227902EF
:1014E3001202B990014D22120331790312023522FF
:1014F3007A5A7B08120331790212023522900113C2
:10150300E4F01201DB9001247409F090012D7402C0
:10151300F079011202411202297A957B07120BA07E
:101523007AA67B071214F77AB77B071214EA120123
:10153300EDE9640170F8120349E9F8740168700D6C
:1015430012031912031FE9640170F580F6E86003C2
:101553000215F412034FE9900125F0120355E990A7
:101563000126F012035BE9900127F0120361900159
:10157300201205E990012078081205ACE5089001D6
:10158300281215FB1205ACE5099001291215FB126F
:1015930005AC74107808120528E50890012A121585
:1015A300FB1205AC74187808120528E50890012B86
:1015B300F0900126E0F8740768600D740368600812
:1015C300120367E990012CF0120325E9F87402680D
:1015D30060F6740368700302155612032BE9F8745E
:1015E300016860F674026860DF74036870030215B3
:1015F300567A007B000200FBF090012078082274E9
:10160300F612069B75088075090078081207517C4D
:10161300007D007A007B6012037F740212065C79FE
:10162300811202A179911202A190618674E10219DB
:101633003C74F612069BE9FEEAFF8B088C09ECA2C8
:10164300E25004D2F08002C2F0906003A2F0E09274
:10165300E0F074035509F8906001E054FC48F0E0B1
:10166300C2E2121733A3E0D2E0F0E0D2E1F0E0D21D
:10167300E2121733E0543FF09061877419F09061E0
:10168300BC7403F0906265741BF09061807441F048
:10169300ECA2E35004D2F08002C2F0A2F0E433F8EB
:1016A300EE3348906190F0EB1313543F4440A3F0A2
:1016B3009061937463F074076E600574036E703108
:1016C3009061A27466F090619274CCF0906003E034
:1016D300D2E1F0E0D2E2F0EF9061A5600A7401F08C
:1016E30090607E74D08026740FF090607E7490803A
:1016F3001C9061A27410F090619274C0F09060032A
:10170300E0C2E1F0E0C2E2F09061A57401F079017A
:10171300120289E508906194F0EF7A827B006005FC
:1017230012027D800312027779001202BF02193D73
:10173300F0E0C2E3F0E054CFF02274F412069B8A87
:10174300088B098C0A8D0B1202FB7A207B00120393
:1017530001AA08AB09AC0AAD0B1203077908120200
:10176300E9906001E0D2E3F0759C7375A100790004
:1017730012030D021BB574F612069B121A0BFE9090
:101783006194E0541FF970027920900114EAF0A3E8
:10179300EBF0898285820875090074076E60057411
:1017A300036E7056906012E4F0A3F074047808128C
:1017B3000633AC08AD09121A1D120633AA08AB0989
:1017C300E9C3941C40121219341206331218FA2476
:1017D300A6F8E934F80218E7E9C39414121934405F
:1017E3000A1206331218FA24BE80E61206331218C0
:1017F300FA24D9F8E934F80218E774066E60057420
:10180300026E7052906012E4F0A3F074057808122F
:101813000633AC08AD09121A1D120633AA08AB0928
:10182300E9C3941C400F12191F1219062416F8E974
:1018330034F60218E7E9C39414906192E0540FF967
:10184300EA40071218F2245680E41218F22476F8BC
:10185300E934F60218E774067808120633AC08ADCB
:101863000974096E7039906012E4F0A3121A1C1205
:101873000633AA08AB09E9C3941C12192C401012B1
:101883000633EAC31218FE24F6F8E934F080551241
:101893000633EAC31218FE24D6F8E934F1804574FE
:1018A300046E600574086E7044906012E4F0A31235
:1018B3001A1C120633AA08AB09E9C3941412190FB0
:1018C300740A78084010120633EAC31218FE24364D
:1018D300F8E934EF800E120633EAC31218FE2456D9
:1018E300F8E934EDF9906014E8F0A3E9F0804BC314
:1018F300F8EB9912190622EAC39508F8EB95091239
:10190300190622F9E82CF8E93DF9E8221219132205
:10191300906192E0540FF50875090022906192E0FE
:10192300540FF9EAC3F8EB992212191374097808D2
:10193300221219137407780822F07F020207077432
:10194300F612069B121A0BFC906194E0541FF87078
:10195300027820900114EAF0A3EBF08882858208D4
:1019630075090074076C600574036C702174047846
:1019730008120633E5082414F8E5093405121A148D
:10198300120633E5082480F8E50934F6806E740600
:101993006C600574026C701C74057808120633E5DC
:1019A3000824B0F8E5093404121A14120633E508C2
:1019B30024C0804374067808120633A808A9097462
:1019C300096C7018E824D0F8E93407121A141206C7
:1019D30033E50824C0F8E50934F9802074046C6009
:1019E3000574086C701FE8245CF8E93412121A14A9
:1019F300120633E50824F8F8E50934F8F99060167F
:101A0300E8F0A3E9F002193D906190E0C313540F8D
:101A130022F9906012E8F0A3E9F0900114E0F508D0
:101A2300A3E0F5097405780822C082C083EA24B5CF
:101A3300547FF8906000E0548048021ADFC082C0EF
:101A430083121A0BF8E9900116F0740768600574A5
:101A5300036870179061A0747FF090619A7429F005
:101A6300A3745AF0900116740280287401697011EE
:101A73009061A0747FF090619A743FF0A3745A80D0
:101A830012E970109061A0743AF090619A7433F087
:101A9300A37455F08047C082C0839061B1E0D2E067
:101AA300803AC082C083E9F8906188E0F99061B11F
:101AB300E06015E9A2E24010E8601FE5E170FC7503
:101AC300E10BE591A2E650FAE0C2E0F075910075F2
:101AD3009B0090607F740FF079008001F0D083D079
:101AE300820200FB74F412069B74FE120646E9FBA5
:101AF300EA75F00CA4F8AEF0E42EF9746039F9122B
:101B03001C8CE0851082851183121C97E0C0E07461
:101B130001120691D0E0F0E8241B121EF2E0A2E6C7
:101B2300121BBA600EE50AA2E0B3121BBA60047975
:101B330009807AEAC39402780050047961800979B4
:101B430060EAC3139061C0F0EAA2E050027840E576
:101B53000AA2E05008E82420F8E93400F97E007F67
:101B63000080248C828D83E088828983F08C828D2F
:101B730083A3AC82AD8388828983A3A882A983EEE1
:101B830024010EEF3400FF8B08C3EE9508EF121EFD
:101B9300E040D0EAC3940240059061C0E4F0741CB5
:101BA300250AF5827460121EF5EBF07900740212B7
:101BB300065C7F04020707E433F50AF50885108203
:101BC300851183E5822508F582E5833400F583E0FA
:101BD30022E5E170FC89E10200FBC082C0839060D2
:101BE30079E0F9748069700479808015900116E0BA
:101BF3006402700474958007E0640160F7749E29A1
:101C0300F9021AE074F512069BE98A0875F00CA430
:101C1300F8AAF0E42AF9746039F9E82419121EF2DB
:101C2300ECF0E8241A121EF2EBF0E82423FAE9346C
:101C330000FBE82422FEE93400FF906001E0540336
:101C4300C394024021E8241B121C82121C8CE41250
:101C53001C97E4F0E82420121C82E82421121C8241
:101C63008E828F8380058E828F83E4F08A828B83BA
:101C7300F0E82418121EF2E508F07F03020707F5C7
:101C830082E93400F583E4F022E8241CF582E93488
:101C930000F58322F0E8241DF582E93400F5832260
:101CA300C082C083E990601AF0906001E05403C3DE
:101CB30094024013EB906019F0906020121CD1F055
:101CC30090601874188004906018E4021ADFE4F03E
:101CD300A3F0A3F0A322C082C083E9600F146025A0
:101CE300146045146052146074021D819061E01207
:101CF3001CD17407F0906008121CD174FFF090603F
:101D030004740180789061E0E4F0A3F0A37405F01B
:101D1300A37480F0906008E4F0A3F0A374FFF0A331
:101D2300F0906004740280559061E0E4F0A3F0A3A6
:101D33007421F0A3741080DB9061E0E4F0A374CB12
:101D4300F0A3746DF0A3745DF0906008E4F0A374E5
:101D5300FFF0A3F0A3F0906004740380209061E08F
:101D630074B7F0A3741DF0A374C1F0A37404F090CE
:101D7300600874FF121CD2F09060047404F0021A1D
:101D8300E0C082C083E9A2E1500D9061E97402F0E2
:101D930090600C7480800CA2E09061E9500474019F
:101DA30080EDE4021ADF74F412069B74FC120646FB
:101DB300851082851183EAF0A3EBF0A3ECF0A3ED89
:101DC300F0906194E0541FF970047920803B7420F3
:101DD300C399FA85108285118378081205ACEA78D5
:101DE3000812054185108285118378081205CE7487
:101DF3001012069178081205ACEA780812054174AE
:101E03001012069178081205CE7403120691E09021
:101E13006198F07402120691E0906197F0E9C3941F
:101E230011401C7401120691E0906196F0E9C3948D
:101E3300194011851082851183E090619580099086
:101E43006196E4F0906195E4F074101206917808BD
:101E53001205ACE5084509450A450B6042E090616F
:101E6300FBF07412120691E09061FAF0E9C3941149
:101E7300401B7411120691E09061F9F0E9C39419C3
:101E830040107410120691E09061F880099061F996
:101E9300E4F09061F8E4F0906194E0D2E78006907A
:101EA3006194E0C2E7F07404021BB2E5E170FC75D3
:101EB300E1080200FB74F012069B89D9EAF5D9EB1D
:101EC300F5D9ECF5D9EDF5D97804800775B4078514
:101ED300BCD908E8C39940F47F080207079400A21D
:101EE300D265D03322E5E170FC75E1090200FBF510
:101EF30082E93400F58322C082C083906182E04985
:101F0300F0439A01021AE0C082C083E9F4F89061B9
:101F130082E058F0E59AA2E0E433F59A021AE0EA87
:101F23002400EB3480FB0200FB74F112069B74FE69
:101F3300120646851082851183ECF0A3EDF0890E1D
:101F4300741112069178081205AC7F007E0080128E
:101F5300E493C0E08F0C742F250C1223B8D0E0F06B
:101F63000E0F8E0CEA250CF582EB1223BCE4937062
:101F7300DF7E00AA08AB09AC0AAD0B1203798A080D
:101F8300A8088010C0E08F08742F25081223B8D04A
:101F9300E0F00E0F8E08E82508F582EB1223BCE073
:101FA30070E27E008009E4938A828B83F00E0F8FA8
:101FB30008742F2508F874013400F9E8FAE9FBEEF8
:101FC300F8851082851183E028F8A3E03400F988AE
:101FD300828983E49370CF8A828B83E4F07A2F7BA8
:101FE30001A90E120235740212065C7F070207076D
:101FF30074F012069B74F5120646E985108285116A
:1020030083F08A088B098C0A8D0B7E0274011206F9
:1020130091AC82AD83758301758271740A120602D5
:102023007F027427120691E0C39464400A0F80076D
:102033007A967B0012025F1224527401687009EED3
:10204300C39403500A0E8007E87004EE60041EEE8A
:1020530070311223C17429120691E0F8740112063B
:1020630091E58228F582E5831223BCE075F011A483
:10207300F8A9F074AB28FA748939FB790312023595
:1020830002219D74016E705474281206911221BBB3
:1020930012074D79017C0D7D087A047B08122328F1
:1020A30012065C7427120691E0244BF50CE4340904
:1020B3001221AF12074D12231E12065C742712065B
:1020C300911221BB12074D79038F0C7452250CFC1E
:1020D30074093400FD7ADC7B0702219774026E7069
:1020E300637423120691E0F50CA3E0F50DE4F50EFD
:1020F300F50F780C12074D79017CAC7D087AA47B2F
:102103000812232812065C7425120691E0F50CA32D
:10211300E01221AF12074D79027CB77D087AB07BBC
:102123000812232812065C780812074D79037404F9
:10213300120691E0FA74522AFC74093400FD7ABC49
:102143007B08805074036E7051780812074D790133
:102153007404120691E0FA74492AFC74093400FDF0
:102163007ABC7B0812232812065C741B1206911298
:10217300076479027C5B7D097AC47B0812232812E9
:10218300065C741F12069112076479037C5B7D0958
:102193007ACC7B0812232812065C122559600302AD
:1021A3002033740B12065C7F08020707F50D339585
:1021B300E0F50EF50F780C22E0F50CE4F50DF50EC5
:1021C300F50F780C2274F412069BE9FE8E08E4F5F1
:1021D30009F50AF50B780812074D79017C5B7D0937
:1021E3007AD47B0812232812065C7A017B89790250
:1021F3001202357A127B89790312023579031202AE
:102203004179011202477F0402070774F512069B06
:102213001202297AC87B8779011202357508D575B0
:102223000987122560750A0080077A647B00120211
:102233005F1224527010E50A701F750A017ACE7B73
:10224300871225C7800E740168700E7401650A70C9
:1022530008122264790312023512255970CC022523
:10226300B9750A00AA08AB0979021202357A7E7B96
:10227300892274F212069B7E177A647B0012025F36
:10228300120229750C7E750D89AA0CAB0D79031208
:10229300023580077A967B0012025F12245270097E
:1022A300EEC39465500F0E800C7401687007EEC383
:1022B300941840011E74176E7006AA0CAB0D800FA4
:1022C30074656E70067A6D7B8980047A5C7B89798C
:1022D300031202358E08E4F509F50AF50B780812A6
:1022E300074D79017C5B7D097ADC7B071223281279
:1022F300065CE508244BF508E43409F5093395E059
:10230300F50AF50B780812074D12231E12065C120C
:1023130025597080EEF97F0602070779027CEE7D6E
:10232300077AE57B0712033774042274F712069BBE
:1023330074F9120646851082851183AC82AD8375CC
:10234300830175827B7407120602F50812022912B3
:1023530023C17A827B01790312023580077A967B47
:102363000012025F122452700BE508C39406500F4B
:102373000508800B7401687006E50860021508857E
:102383000882AE82EE75F012A4F8A9F0748228FADE
:10239300740139FB12245870C4851082851183E5BA
:1023A300822EF582E5831223BCE0F9740712065CE2
:1023B3007F01020707F58274013400F583227A8FC7
:1023C3007B8979011202357A9D7B89790212023564
:1023D3002274F212069B1202297AF37B871224EDF0
:1023E30080077A967B0012025F1224527009EEC3B3
:1023F3009403500C0E80097401687004EE60011E92
:102403008E0874222508F582740A1223BCE493FF14
:102413008F08E4F509F50AF50B780812074D7902E0
:102423007C0D7D087A5B7B0912232812065CEE7013
:1024330006AA0CAB0D800F74036E70067A6D7B8950
:1024430080047A5C7B891224587097EF0223181258
:102453000205E9F82279031202351201EDE964015C
:102463002274F212069B1202297A147B881224ED3D
:1024730080077A967B0012025F1224527009EEC322
:102483009404500C0E80097401687004EE60011E00
:102493008E0875090074027808120633742625081D
:1024A300F582740A3509F58378081205BB7808129A
:1024B300074D79027C257D087A5B7B09122328125C
:1024C300065CEE7006AA0CAB0D800F74046E7006EA
:1024D3007A6D7B8980047A5C7B891224587093AA75
:1024E30008AB09AC0AAD0B02231979011202357549
:1024F3000C7E750D89AA0CAB0D79031202357E0093
:102503002274F512069B750A001202297A2E7B8823
:10251300790112023575083875098812256080071C
:102523007A967B0012025F1224527010E50A701F24
:10253300750A017A3C7B881225C7800E7401687086
:102543000E7401650A7008122264790312023512AF
:10255300255970CC80601201EDE9640122122564D3
:1025630022AA08AB0979021202357A7E7B897903A4
:102573001202352274F512069B1202297A7C7B889B
:1025830079011202357508857509881226158007A9
:102593007A967B0012025F12245270051225C080C6
:1025A3000B740168700B750A021222677903120219
:1025B3003512255970DAA90A7F03020707750A0342
:1025C3007A937B8879021202357A6D7B892274F5BE
:1025D30012069B1202297A6B7B88790112023575E8
:1025E300089D75098812261580077A967B001202CA
:1025F3005F12245270051225C0800B740168700BA2
:10260300750A02122267790312023512255970DA0C
:1026130080A4122564750A0222C292C280C2F9897B
:10262300F9A2F950FC00000000D2920200FBC29212
:10263300D280C2F989F9A2F950FC80E9C082C08333
:10264300C292D280ECF8EDF9E824FF1CE934FFFDD7
:10265300E8496014C2F98A828B83E0F5F9A3AA8260
:10266300AB83A2F940DE80FA00000000D292D0834F
:10267300D0820200FB74F712069B8908EAFEEBFF87
:1026830074FF2508C454F04480F912020B7C107DBA
:1026930000EEFAEFFB120217800812020BEEF9129A
:1026A30002117F01020707C082C08353F4FBD29259
:1026B30043FE0453F3FED28043FD01791512020B4E
:1026C300790F12022F790E12020B792512020B7960
:1026D3001C12020B7A157B0012025F1202291202EE
:1026E3003B792912020B02267174F712069B79803B
:1026F30012020B7E3079201202111EEE70F780A2B7
:1027030074F712069BE9FE7950808F74F612069BCC
:10271300E9FEEA4B60387C008C0874022508F874E3
:10272300013400F98A828B83E088828983600CF00C
:102733008A828B83A3AA82AB8380037420F00CEC80
:10274300C3941040D37A027B01EEF912021D7F027B
:1027530002070774F712069B79C012020B7E4079B9
:10276300001202111EEE70F70226A574F012069BEA
:1027730074FB1206467401120691EAF0A3EBF0A370
:10278300ECF0A3EDF07A417B017401120691C08253
:10279300C08390014D78081205ACD083D0827808AD
:1027A30012039A851082851183501C7401F012065E
:1027B3009178081205AC7808120517740112069176
:1027C30078081205CE8002E4F07401120691780CA9
:1027D3001205AC90016178081205AC780C790812E7
:1027E30004D9E50824308A828B83F0A3AA82AB83C1
:1027F3007401120691780C1205AC900161780812ED
:1028030005AC780C79081204D97401120691780C7E
:102813001205CE740112069178081205ACE508453D
:1028230009450A450B70A2851082851183E0A2E059
:10283300500B8A828B83742DF0A30AAB838A828B1D
:1028430083E412288078417901801D8A828B83E09A
:10285300FC88828983E08A828B83122880EC8882B9
:102863008983F0A3A882A983C3E89AE99B40DC7A11
:10287300417B01740512065C7F08020707F0EA2416
:10288300FF1AEB34FFFB22E942A7D2BA0200FBE9AD
:10289300F452A7C2BA0200FB74F012069B8A0C8B97
:1028A3000D8C0E8D0FE9FEA2AFE433FFC2AF12020F
:1028B300FB900117E4F0EE600D79081202E975C38D
:1028C30022759C37800B79101202E975C332759C0F
:1028D3004775A20075A37DE50CF5A4850D09E509EF
:1028E300F5A57410780C120528E50CF5A690600187
:1028F300E054CF4410F075A100C2C2EFA2E092AF42
:102903007F0802070775940075C30075A20075A3BD
:102913000075A40075A50075A60075A100C2C202CA
:1029230000FB75C302EAF5A2EBF5A30200FB74F00A
:1029330012069B75C320EAF5A4EBF5A5ECF5A602F8
:102943002903A2AFE433F8C2AFE96003439402431F
:102953009401E594A2E250FAE8A2E092AF0200FBF0
:10296300A2AFE433F8C2AFE960034394025394FE89
:10297300E594A2E240FA80E074F612069B7E03E53A
:10298300A0FF7B067A1079801201C9EFA2E05008FC
:10299300EB547FC3945450097E00900101E4F0800E
:1029A300207A037B001202591EEE70D3900101E0DE
:1029B300700D7401F0FE7A647B0012025F80027E68
:1029C30000EEF97F0202070774F712069BE9FE7B0C
:1029D300067A1079801201C9EB547FF8C39428500A
:1029E3000479008020E8C3943C500479018016E800
:1029F300C3944A50047902800CE8C3945450047978
:102A03000380027904EE6970C47F01020707C08264
:102A1300C083E914600B14600C14600D14600E8005
:102A230014D2908010D291800CD2948008D28190DD
:102A330001127401F0D083D0820200FBC082C083F4
:102A4300E914600B14600C14600D14600E8013C243
:102A530090800FC291800BC2948007C281900112B3
:102A6300E4F080D1C082C083E914600B14600D14BC
:102A7300600F1460118019639001801463900280C9
:102A83000F639010800A638002900112E06401F0EA
:102A930080A3C082C08375BE8079011201CF790003
:102AA3001201D579001201CFD083D0820200FBEB53
:102AB300C313FBEA13FAEAF8EBF9E824FFFAE93463
:102AC300FFFBE84960130000000000000000000065
:102AD3000000000000000080DD0200FB74F7120616
:102AE3009BEAFEEBFFEEF8EFF9E824FFFEE934FF83
:102AF300FFE84960097AE87B0312025980E77F0106
:102B0300020707C082C08312025343FE01C29043EF
:102B1300FE02C29143FE10C29443FD02C28153F3ED
:102B2300FD53FDFD438F0253F5FE53FFFE43F701B3
:102B330043F3401201E11202231201F3D083D08246
:102B43000200FBC082C08343F1021201E775FB80E0
:102B530075F80075FC2F75FA5380E143F48043F454
:102B63004043F4200200FBC082C0837900122BAEE5
:102B7300A28150227800A281500478007900E824D1
:102B83000108E93400F9C3E894F4E99401A2D26599
:102B9300D03340E2790153F3FD900112E0A2E092B9
:102BA3008143FD02D083D0820200FB53F3FD53FD2A
:102BB300FD438F0222740169700575C6C98006E959
:102BC300700353C680E5C6F8E59E6870FB0200FB00
:102BD300E9F8E59EA2E640047901801AE8700553FE
:102BE300C67F8008740168700343C680E5C6F9E5B3
:102BF3009E6970FB79000200FB74F612069BE9FCE8
:102C0300EAFDEBFE7508017509007808120633A882
:102C130008E842F2C28DEC4D4EF5B6A28D50FCE5AC
:102C2300BBF9E5BAF508E8F452F2AA08E9FB7F021A
:102C330002070774F712069B7409120691E0F8A3C2
:102C4300E0F98A828B838003ECF0A3E8FEE9FFEED0
:102C530024FF18EF34FFF9EE4F70ED7F01020707F1
:0A2C6300D2AF0200FBC2AF0200FB7B
:04000005000000E314
:00000001FF
