:020000040000FA
:030000000200C734
:03002B00020AB70F
:03005300020ABAE4
:10008300020D0900000080FBE4900101781779025A
:100093008002F0A3D8FCD9FA7A177B029000D678B5
:1000A3000979018015E493A3AD82AE838A828B83A1
:1000B300F0A3AA82AB838D828E83D8E9D9E7120D90
:1000C3003612008675D0007581BF75100175110158
:1000D30002008B00000000717641297009080808AE
:1000E300226016181818C6C333C608C633C608C616
:1000F30033C608C633C6D5E0EA22E0F608A3E0F625
:1001030008A3E0F608A3E0F622E6F008A3E6F00869
:10011300A3E6F008A3E6F022E0FAA3E0FBA3E0FCE9
:10012300A3E0FD22E0FCA3E0FDA3E0FEA3E0FF22A9
:10013300CAC0E0E6F0A308DAFAD0E0FA22CAC0E0C7
:10014300E0A3C582CCC582C583CDC583F0A3C58298
:10015300CCC582C583CDC583DAE6D0E0CA2270045C
:1001630022600D18C6C333C608C633C6D5E0F418DB
:1001730022251010AF08F510400C15118008F5105A
:1001830040021511D2AF2200C0D0251010AF08F5E0
:1001930010500C05118008F51050020511D2AFD094
:1001A300D0222510F58210AF08F510400C151180F0
:1001B30008F51040021511D2AF851183222510F5E1
:1001C30082E43511F583222510C582C0E0E51134A0
:1001D300FFC583C0E0E510C3958224F910AF0885FD
:1001E30083118582108008858311858210D2AFCE5A
:1001F300F0A3E520F0A37808E608F0A3DEFAEFF019
:10020300A3E58124FBF8E608F0A3E608F0A30808B9
:10021300E608F0A3E608F0A315811581D0E0FED02F
:10022300E0F815811581E8C0E0EEC0E02285118376
:10023300851082E0A3FEE0A3F5207808E0A3F6088A
:10024300DFFAE0A3FFE0A3C0E0E0A3C0E0E0A3C0C7
:10025300E0E0A3C0E010AF08858210858311800819
:10026300858210858311D2AFD083D08222C0D0255E
:1002730010C582C0E0E51134FFC583C0E0E510C3BB
:10028300958224F310AF0885831185821080088539
:100293008311858210D2AFC8F0A3E9F0A3EAF0A3DB
:1002A300EBF0A37908E709F0A3D8FAECF0A3EDF09B
:1002B300A3EEF0A3EFF0A3D0E0F0A3D0E0F0A3D03F
:1002C300E0F0A3E520F0A3E5F0F0A32285118385F8
:1002D3001082E0C0E0A3E0F9A3E0FAA3E0FBA37877
:1002E30008E0F608A3DFFAE0FCA3E0FDA3E0FEA329
:1002F300E0FFA3E0C0E0A3E0C0E0A3E0F5D0A3E00B
:10030300F520A3E0A3F5F010AF08858311858210D3
:100313008008858311858210D2AFD082D083D0E04C
:10032300F8D0E03274028000C0E0F4041201A5D0DA
:10033300E0120133227404800474028000CCC0E014
:10034300EDC0E0E510C39CCCAD1150011D10AF060C
:100353008C108D1180068C108D11D2AF120140D0FC
:10036300E0FDD0E0FC22D2AF22C0E0C0D0C082C00A
:1003730083E591900101F0759B00E0F4F591D08342
:10038300D082D0D0D0E03274F71201CA75088075DC
:10039300090078081203277C007D007A007B601235
:1003A3000FD2740212018A7981120812799112080C
:1003B3001290618674E50204C774F71201CAE9FE5C
:1003C300EAFF8B08ECA2E25004D2F08002C2F0A252
:1003D300F0E433F8A2E0906003E054FE48F07403C5
:1003E3005CF8906001E054FC48F0E0C2E21204BD06
:1003F300A3E0D2E0F0E0D2E1F0E0D2E21204BDE00B
:10040300543FF09061877479F09061B67416F09060
:1004130061BC7407F09061807441F0ECA2E3500476
:10042300D2F08002C2F0A2F0E433F8E933489061DD
:1004330090F0EB1313543F4440A3F0906193746323
:10044300F074076E600574036E70319061A2746678
:10045300F090619274CCF0906003E0D2E1F0E0D2CE
:10046300E2F0EA9061A5600A7401F090607E74D0B6
:100473008026740FF090607E7490801C9061A2744B
:1004830010F090619274C0F0906003E0C2E1F0E07C
:10049300C2E2F09061A57401F07901120765E508E5
:1004A300906194F0EF7A827B0060051206748003FA
:1004B3001204CD7900120976800BF0E0C2E3F0E07C
:1004C30054CFF022F07F0202023074F71201CA12F5
:1004D3000726FE906194E0541FF9700279201207F9
:1004E3003A120161AA08AB09E9F508750900740716
:1004F3006E600574036E7047906012E4F0A3F074AD
:10050300047808120161AC08AD09E9C3941C400DDD
:1005130012066C12016112062F24A6801BE9C394F4
:100523001412066C400A12016112062F24BE8008C1
:1005330012016112062F24D9F8E934F80206077470
:10054300066E600574026E703F906012E4F0A3F0D3
:1005530074057808120161AC08AD09E9C3941C4025
:100563000A12064D12063624168017E9C394149016
:100573006192E0540FF94005120617800512061325
:100583002476F8E934F6807C74067808120161ACAD
:1005930008AD0974096E702C906012E4F0A3F0E9C1
:1005A300C3941C12065A400E12016112061D24F652
:1005B300F8E934F0804E12016112061D24D6F8E9E1
:1005C30034F1804074046E600574086E703F90606F
:1005D30012E4F0A3F0E9C39414120662740A7808D3
:1005E3004013120161E509543CF91206132436F84D
:1005F300E934EF800F120161E509543CF912061743
:10060300F8E934EDF9906014E8F0A3E9F00204C8C6
:1006130012062622120626245622E509541EF91232
:10062300062622C3EB99F9EA1206362212063D1278
:100633000636222CF8E93DF9E822A808E509540713
:10064300F9EAC398F8EB99F9E822906192E0540F24
:10065300F9C3EB99F9EA2212066274097808229029
:100663006192E0F5087509002212066274077808A2
:100673002274F71201CA120726FC906194E0541FFA
:10068300F97002792012073A120161AA08AB09E94D
:10069300F50875090074076C600574036C701B74AE
:1006A300047808120161E5082414F8E509340512F9
:1006B300072F2480F8EB34F6805D74066C600574B4
:1006C300026C701774057808120161E50824B0F80C
:1006D300E509340412072F24C08038740678081201
:1006E3000161A808A90974096C7012E824D0F8E91B
:1006F300340712072F24C0F8EB34F9801A74046C02
:10070300600574086C7019E8245CF8E93412120768
:100713002F24F8F8EB34F8F9906016E8F0A3E9F029
:100723000204C8906190E0C313540F22F990601241
:10073300E8F0A3E9F0EA22900102EAF0A3EBF090DB
:100743000102E0F508A3E0F5097405780822C082E8
:10075300C083EA24B5547FF8906000E054804802D7
:100763000804C082C083120726F8E9900104F074DC
:100773000768600574036870179061A0747FF09038
:10078300619A7429F0A3745AF090010474028028CA
:1007930074016970119061A0747FF090619A743F45
:1007A300F0A3745A8012E970109061A0743AF0902B
:1007B300619A7433F0A37455F08047C082C083906C
:1007C30061B1E0D2E0803AC082C083E9F8906188E9
:1007D300E0F99061B1E06015E9A2E24010E8601F22
:1007E300E5E170FC75E10BE591A2E650FAE0C2E0A9
:1007F300F0759100759B0090607F740FF079008015
:1008030001F0D083D0822212018A7F04020230E5F4
:10081300E170FC89E12274F61201CAE98A0875F0D5
:100823000CA4F8AAF0E42AF9746039F9E82419F55C
:1008330082E439F583ECF0E8241AF582E439F58390
:10084300EBF0E82423FAE439FBE82422FEE439FF41
:10085300906001E05403C39402402A1208A4E4F018
:100863001208AEE41208B8E4F0E82420F582E43973
:10087300F583E4F0E82421F582E439F583E4F08E8E
:10088300828F8380058E828F83E4F08A828B83F04C
:10089300E82418F582E439F583E508F07F030202C2
:1008A30030E8241BF582E439F58322E8241CF58221
:1008B300E439F58322F0E8241DF582E439F5832237
:1008C300E4F0A3F0A3F0A322C082C083E9600F1475
:1008D30060251460321460521460740209739061CD
:1008E300E01208C37407F09060081208C374FFF0A5
:1008F300906004740180789061E0E4F0A3F0A37445
:1009030005F0A37480800E9061E0E4F0A3F0A3747B
:1009130021F0A37410F0906008E4F0A3F0A374FF37
:10092300F0A3F0906004740280459061E0E4F0A3CA
:1009330074CBF0A3746DF0A3745DF0906008E4F0E1
:10094300A374FFF0A3F0A3F09060047403802090DD
:1009530061E074B7F0A3741DF0A374C1F0A3740431
:10096300F090600874FF1208C4F09060047404F0FF
:10097300020805C082C083E9A2E150079061E974CF
:10098300028009A2E09061E9500A7401F090600CC2
:1009930074808001E402080474F51201CA74FC1225
:1009A3000174851082851183EAF0A3EBF0A3ECF0C8
:1009B300A3EDF0906194E0541FF970047920803B1B
:1009C3007420C399FA85108285118378081200FD7B
:1009D300EA78081200DE85108285118378081201F7
:1009E3000C740F1201C078081200FDEA7808120097
:1009F300DE740F1201C0780812010C74031201C0D7
:100A0300E0906198F074021201C0E0906197F0E900
:100A1300C39411401C74011201C0E0906196F0E987
:100A2300C394194011851082851183E090619580EC
:100A330009906196E4F0906195E4F0740F1201C09F
:100A4300120127EC4D4E4F604774121201C0E09023
:100A530061FBF074111201C0E09061FAF0E9C394F4
:100A630011401B74101201C0E09061F9F0E9C394C6
:100A7300194010740F1201C0E09061F88009906171
:100A8300F9E4F09061F8E4F0906194E0D2E7800635
:100A9300906194E0C2E7F0740402080AE5E170FC97
:100AA30075E10822C082C083906182E049F0439AD5
:100AB30001020805C2C732C0E0C0D0E8C0E0C0826E
:100AC300C083A8A1E8A2E450069001057401F0E8F0
:100AD300F4F5A1C2C2D083D082D0E0F8D0D0D0E068
:100AE3003274F11201CA8A088B098C0E8D0F740FB0
:100AF3001201C0E0FEA3E0FF8C0AEC8EF0A4C50A4D
:100B0300A8F08FF0A428F88EF0EDA428F50BAA0A1C
:100B1300FB120EA48B0DA90D850882850983EAF0CB
:100B2300A3EBF0EA49700280FEEA250AF8EB350BE5
:100B3300F9850882850983A3A3E8F0A3E9120B983A
:100B4300E50EF0A3E50F120B92E4F0A3120B92A3B0
:100B5300A3EEF0A3EF120B87850882850983A3A375
:100B6300A3A3A3A3A3A3A3A3E8F0A3E9120B87E57D
:100B730008240CF582E43509F583E8F0A3E9F07F56
:100B830008020230F0850882850983120C8922123B
:100B93000B98A3A322F0850882850983A3A3A3A3AB
:100BA30022D083D0822274F31201CAEAFEEBFFEA59
:100BB300120C788A828B83A3A3A3A3E0687003A398
:100BC300E069700280FEEA240AF508E43FF509EAC9
:100BD300120C5D12033C850882850983E0FAA3E0C9
:100BE300FB120F8C740212018A120C8F7002E96BD4
:100BF3007003120C6B850C82850D83120E5AF07FE5
:100C03000602023074F31201CAEAFEEBFFECFAEDBE
:100C1300FBEE120C78E849700280FEEE240CF50816
:100C2300E43FF509EE120C5D12033C850882850949
:100C330083E0FCA3E0FD120F8C740212018A120CF4
:100C43008F7002E96B7003120C6B850C82850D8328
:100C5300E024FFF0A3E034FF80A42408F50AE43F76
:100C6300F50B850A82F583228E828F83120CB8E8F6
:100C7300F0A3E9F0222406F50CE43FF50D850C8280
:100C8300F583120C8922E0F8A3E0F922850A828514
:100C93000B83120CB8E028F8A3E039F985088285A4
:100CA3000983E8F0A3E9F08E828F83A3A3E0FAA37C
:100CB300E0FBE86A22120C89850882850983227485
:100CC300F71201CA74FF120174EAFEEBFF9061C5CB
:100CD300E0A2E3502585D9087509008016E5D9857A
:100CE3001082851183F0AC10AD11EEFAEFFB120BFD
:100CF300A90509E509C3950840E3A9087401120190
:100D03008A7F02020230C0E074F21202707A057B1D
:100D130002120CC2759100759B00120A9F7F01029B
:100D230002CFC082C08374FF900106F8F0A3D8FC01
:100D3300020BA4120D25750801750900780812032A
:100D4300277C807D007A057B02120AE4740212017B
:100D53008A120D5C120D9480FE53C6B8E59EA2E67E
:100D630040FA75F31175F41175C2D8E5C554E04422
:100D73000BF5C543868053C4FE43C40253C4FB53DF
:100D8300C4F753C4EF53C4DF53C4BF53C5DF0203D7
:100D93006974F81201CA74FF12017479011207CA47
:100DA30012038A7C017B207A0079031203BC7A62E6
:100DB3007B0912075179021208CB900217120338EC
:100DC30090021B12011B12099B740412018A7C20DE
:100DD3007BEF7A1979001208191207BE7940120ABB
:100DE300A7120369120A9F90020B120C89E849604B
:100DF300F65386FDE8FEE9FFAC10AD117A057B02E0
:100E0300120C07851082851183E0F5C1900213C38C
:100E1300E094FFA3E09400A2D265D0335022851062
:100E230082851183E0C0E0900213E02406F8A3E07A
:100E330034018882F583D0E0F0900213120E5AF049
:100E4300E586A2E150FA5386FDEE24FF1EEF34FF40
:100E5300FFEE4F609280A1E02401F0A3E034002272
:100E630074F81201CAECF8EDF98A828B83A3AE827F
:100E7300AF83E0FAA3E0FBEAC398FCEB99FDC3EC74
:100E83009404ED940040158E828F83E8F0A3E9F07B
:100E930088828983E4F0A3EAF0A3EBF07F010202E6
:100EA3003074F61201CA900215E0F8A3E0F9E8499C
:100EB300700A900215741FF0A37402F0900215E0FB
:100EC300FEA3E0FF741EC39EFC74039FFDEA24038C
:100ED300F8E43BF9C3EC98ED994040E08E82F5834A
:100EE3007401F0900215E02AFCA3E03B8C82F583A9
:100EF300A3A3A3AC82AD83900215ECF0A3EDF08E17
:100F0300828F83A3ECF0A3EDF0C3E49AF8E49BF99A
:100F1300900215E028FAA3E0398062781F790280F5
:100F230004ECF8EDF988088909C3E5089EE5099FF3
:100F3300504E88828983A3E0FCA3E0FD88828983E5
:100F4300E070DEECC39508F508ED9509F509E508B1
:100F530024FDF508E50934FFF509C3E5089AE50919
:100F63009B40BEE82403FEE439FF7401F0EE2AFC43
:100F7300EF3BFDE8FAE9FB120E63EEFAEFFB8004A8
:100F83007A007B007F0302023074F71201CAEAF889
:100F9300EBF974091201C0E0FEA3E0FF80188C8214
:100FA3008D83E088828983F0A3A882A9838C828DB4
:100FB30083A3AC82AD838E088F09E50824FF1EE569
:100FC3000934FFFFE508450970D47F02020230C0EF
:100FD30082C083851082851183E0F8A3E0F9E84994
:100FE30060128A828B83ECF0A3E824FF18E934FFB4
:090FF300F94870F2D083D082228B
:04000005000000C730
:00000001FF
