:020000040000FA
:030000000200D328
:03002B0002154A71
:0300530002154D46
:03006B000221C7A8
:10008300020C1000000080FB1200E2B90003020022
:10009300CDE4900101784D79018002F0A3D8FCD919
:1000A300FA90014DAA82AB839000E578B479018080
:1000B30015E493A3AC82AD838A828B83F0A3AA82D7
:1000C300AB838C828D83D8E9D9E71220CB120086CB
:1000D30075D0007581BF75100175110102008B7910
:1000E3000122000000000100000071764129102761
:1000F3000000640000000A000000E803000007009D
:100103000000FFFFFFFFFFFF020400FF01030506DE
:10011300040602070308094746534B203235306B68
:100123002031363020201E00004746534B2020202C
:10013300314D20313630201F1E00004746534B20DF
:100143002020314D20323530201F1E0000474653FA
:100153004B202020324D20333230201F1E00004719
:1001630046534B202020324D20353030201F1E00B7
:10017300004D534B20203235306B202D2D2D201F69
:100183001E00004D534B20203530306B202D2D2D7C
:1001930020201F0000E066701008A3E066700A08C4
:1001A300A3E066700408A3E06622C3E09608A3E018
:1001B3009608A3E09608A3E096A2D265D03322C3A3
:1001C300E09608A3E09608A3E09608A3E096220829
:1001D3000808EAC0E0EBC0E086F0E7A4FA18098655
:1001E300F0E7A42AFA180986F0E7A42AFA18098680
:1001F300F0E7A42AFA1986F0E7A4FBE5F02AFA1936
:100203000886F0E7A42BFBE5F03AFA190886F0E735
:10021300A42BFBE5F03AFA18180986F0E7A4C5F019
:100223002BFBE43AFA1908E7C5F0C6A426F6E5F075
:100233003BFBE43AFA1886F0E7A4F6E5F00826F665
:10024300E43B08F6E43A08F6D0E0FBD0E0FA22E417
:10025300CFC0E0E4CEC0E0E4CDC0E0E4CCC0E075C4
:10026300F020C3E633F608E633F608E633F608E68D
:1002730033F6181818EC33FCED33FDEE33FEEF3391
:10028300FFC3EC9709ED9709EE9709EF9719191931
:10029300400FFFEC97FC09ED97FD09EE97FE191946
:1002A30006D5F0BEECF709EDF709EEF709EFF719FC
:1002B3001919D0E0FCD0E0FDD0E0FED0E0FF22121F
:1002C300032A1818181202521203191919192212A3
:1002D3000319191919080808E618181820E7E01275
:1002E300025212032A18181822090909E7191919C1
:1002F30020E7DC080808E618181820E70302025272
:1003030012032A18181812025212032A1818181264
:10031300031919191922E4C397F709E497F709E4B4
:1003230097F709E497F722E4C396F608E496F608EC
:10033300E496F608E496F6226016080808C6C31386
:10034300C618C613C618C613C618C613C6D5E0EA20
:10035300227009080808226016181818C6C333C685
:1003630008C633C608C633C608C633C6D5E0EA2274
:10037300E026F608A3E036F608A3E036F608A3E085
:1003830036F622E026F008A3E036F008A3E036F0C4
:1003930008A3E036F022E056F608A3E056F608A3D9
:1003A300E056F608A3E056F622E647F60809E647C4
:1003B300F60809E647F60809E647F622E0F608A339
:1003C300E0F608A3E0F608A3E0F622E493F6087447
:1003D3000193F608740293F608740393F622E6F089
:1003E30008A3E6F008A3E6F008A3E6F022E0FAA3E8
:1003F300E0FBA3E0FCA3E0FD22EAF0A3EBF0A3EC17
:10040300F0A3EDF022CAC0E0E6F0A308DAFAD0E0E8
:10041300FA22CAC0E0E0A3C582CCC582C583CDC59C
:1004230083F0A3C582CCC582C583CDC583DAE6D06C
:10043300E0CA22600D08C6A2E713C618C613C6D5C4
:10044300E0F322700422600D18C6C333C608C63316
:10045300C6D5E0F41822251010AF08F51040021598
:10046300118008F51040021511D2AF22C0D025101B
:1004730010AF08F510500205118008F51050020561
:1004830011D2AFD0D0222510F58210AF08F510405D
:100493000215118008F51040021511D2AF851183A2
:1004A300222510F582E43511F583222510C582C07B
:1004B300E0E51134FFC583C0E0E510C3958224F95C
:1004C30010AF08858311858210800885831185828A
:1004D30010D2AFCEF0A3E520F0A37808E608F0A38E
:1004E300DEFAEFF0A3E58124FBF8E608F0A3E608C3
:1004F300F0A30808E608F0A3E608F0A31581158128
:10050300D0E0FED0E0F815811581E8C0E0EEC0E050
:1005130022851183851082E0A3FEE0A3F5207808ED
:10052300E0A3F608DFFAE0A3FFE0A3C0E0E0A3C086
:10053300E0E0A3C0E0E0A3C0E010AF08858210852F
:1005430083118008858210858311D2AFD083D08236
:100553002274048006740280027401C0E0F4041261
:100563000489D0E012040822740480047402800019
:10057300CCC0E0EDC0E0E510C39CCCAD1150011D33
:1005830010AF068C108D1180068C108D11D2AF1216
:100593000415D0E0FDD0E0FC22434332353435204E
:1005A300504552205465737420005075736820279A
:1005B300427574746F6E2031272000546F2042659A
:1005C30067696E2020202020202020004D6F646565
:1005D3003F004D61737465720052656D6F74650001
:1005E3004368616E3A20202000465245513A20204C
:1005F3002000204D487A005061636B6574204C6580
:100603006E6774683F2020005061636B65743A2005
:1006130000206279746573004E756D2E206F66201D
:100623005061636B6574733F00205061636B657445
:1006330073004C4E41206761696E3F004C4F570079
:1006430048494748004D6173746572204D6F646576
:1006530020285478290050636B74733A200054782F
:1006630020426561636F6E202831306D7329004E1F
:100673006F20426561636F6E205369676E616C0022
:10068300436F6D6D616E643A005265737461727489
:1006930020546573743F004E657720546573743F2F
:1006A3000052657472793F005045523A2020200071
:1006B30020252E00525353493A20002064426D00F6
:1006C3004E23204F4B3A20004352433A2020200030
:1006D3004C6F73743A2020004552524F5220434FBF
:1006E30044453A20004D756C7469706C65204D412A
:1006F300535445527300557365206F6E65204D4109
:100703005354455200536574207570206E657720ED
:10071300746573743A00507265737320454D2052AB
:10072300455345540052656D6F74653A204F4E4CE6
:10073300494E450052656D6F74653A204F46464CED
:10074300494E4500202020202020201F002020206B
:10075300202020201E002020202020201E1F0000FB
:100763001E1F20202020203E3E427574746F6E3180
:10077300001F2020202020203E3E427574746F6E9F
:1007830031001E2020202020203E3E427574746FCD
:100793006E31004D4F44202052415445204445566C
:1007A30000202020202062707320206B487A0047AD
:1007B30046534B203235306B2031363020201F001A
:1007C3004746534B202020314D2031363020201F07
:1007D300004746534B202020314D20323530202016
:1007E3001F004746534B202020324D203332302008
:1007F300201F004746534B202020324D20353030F8
:1008030020201F004D534B20203235306B202D2DDF
:100813002D20201F004D534B20203530306B202DD1
:100823002D2D20201F000A10203F64000000E80344
:10083300000010270000A086010040420F0074F75B
:100843001204AEE9FCEAFDEBFE75080175090078B8
:1008530008120446A808E842F2C28DEC4D4EF5B6E4
:10086300A28D50FCE5BBF9E5BAF508E8F452F2AA0B
:1008730008E9FB7F02020514740169700575C6C996
:100883008006E9700353C680E5C6F8E59E6870FBF1
:1008930022E9F8E59EA2E64003790122E8700553B8
:1008A300C67F8008740168700343C680E5C6F9E516
:1008B3009E6970FB790022120BAC43FE01C2904388
:1008C300FE02C29143F920C2B543FE20C29553F301
:1008D300FD53FDFD438F0253F5FE53FFFE43F70126
:1008E30043F3401208EF120A6202095B53F1FE431D
:1008F300F10212090575C48075860075C52F75C28E
:10090300532243F50843F58043F5042253F3FD5383
:10091300FDFD438F0222C082C083790012090FA21A
:100923008150227800A281500478007900E82401E4
:1009330008E93400F9C3E894F4E99401A2D265D03C
:100943003340E2790153F4DF900112E0A2E0929583
:1009530043FE20D083D08222D2AF22C2AF2274F7CB
:100963001204AE7E03E5A0FF7B067A10798012089D
:1009730041EFA2E05008EB547FC3945450097E002A
:10098300900101E4F080207A037B00120BBE1EEE7F
:1009930070D3900101E0700D7401F0FE7A647B0066
:1009A300120BE980027E00EEF97F02020514E9A230
:1009B300B150047900801AA2B0500479018012A2C8
:1009C300B350047902800AA2B250047903800279F9
:1009D300046970DA22C292C2805386FD89C1E5861A
:1009E300A2E150FA00000000D29222C292D28053B8
:1009F30086FD89C1E586A2E150FA80E8C082C08302
:100A0300C292D280ECF8EDF9E824FF1CE934FFFD33
:100A1300E84960175386FD8A828B83E0F5C1A3AA58
:100A230082AB83E586A2E140DB80F800000000D2C0
:100A330092D083D0822274F81204AEE9FE8A828BAC
:100A43008374FF2EC454F04480F91209D87C107DBE
:100A530000AA82AB831209FF80007F0102051453B1
:100A6300F4FBD29243FE0453F3FED28043FD01799B
:100A7300151209D8790F120AB4790E1209D87925FB
:100A83001209D8791C1209D87A157B00120BE912C6
:100A93000A9D120B1379290209D8EEC0E07980125E
:100AA30009D87E3079201209EE1EEE70F7D0E0FEF1
:100AB30022EEC0E0E9FE7950120AC2D0E0FE221213
:100AC30009D8EEF91209EE2274F71204AEE9FEEA30
:100AD3004B60387C008C0874022508F874013400DC
:100AE300F98A828B83E088828983600CF08A828B07
:100AF30083A3AA82AB8380037420F00CECC394100D
:100B030040D37A027B01EEF9120A397F02020514FF
:100B1300EEC0E079C01209D87E4079001209EE1EBA
:100B2300EE70F7D0E0FE22C082C083E914600B149C
:100B3300600C14600D14600E8014D2908010D2915A
:100B4300800CD2B58008D2959001127401F0D08345
:100B5300D08222C082C083E914600B14600C14603D
:100B63000D14600E8013C290800FC291800BC2B52A
:100B73008007C295900112E4F080D3C082C083E95C
:100B830014600B14600D14600F14601180196390CE
:100B9300018014639002800F63B020800A63902069
:100BA300900112E06401F080A575BE8079011208FE
:100BB3007B7900120894790002087BEBC313FBEAEC
:100BC30013FAEAF8EBF9E824FFFAE934FFFBE84902
:100BD300601300000000000000000000000000009F
:100BE30000000080DD2274F81204AEEAFEEBFFEE93
:100BF300F8EFF9E824FFFEE934FFFFE84960097ADA
:100C0300E87B03120BBE80E77F01020514C0E0C03E
:100C1300D0C082C083E591900113F0759B00E0F48E
:100C2300F591D083D082D0D0D0E03274F71204AEE5
:100C330075088075090078081205587C007D007AD4
:100C4300007B601229D9740212046F798112120297
:100C5300799112120290618674E5020F6874F7129B
:100C630004AEE9FEEAFF8B088C09ECA2E25004D241
:100C7300F08002C2F0906003A2F0E092E0F074030F
:100C83005509F8906001E054FC48F0E0C2E2120D0F
:100C93005FA3E0D2E0F0E0D2E1F0E0D2E2120D5F38
:100CA300E0543FF09061877479F09061B67416F068
:100CB3009061BC7407F09061807441F0ECA2E35042
:100CC30004D2F08002C2F0A2F0E433F8EE3348908D
:100CD3006190F0EB1313543F4440A3F0906193747D
:100CE30063F074076E600574036E70319061A274D3
:100CF30066F090619274CCF0906003E0D2E1F0E092
:100D0300D2E2F0EF9061A5600A7401F090607E7406
:100D1300D08026740FF090607E7490801C9061A246
:100D23007410F090619274C0F0906003E0C2E1F03F
:100D3300E0C2E2F09061A57401F07901121070E550
:100D430008906194F0EF7A827B006005120F6E8049
:100D530003120DA579001213B0020F69F0E0C2E38C
:100D6300F0E054CFF02274F51204AE8A088B098C9C
:100D73000A8D0B1215F17A207B0012160CAA08AB10
:100D830009AC0AAD0B12161679081215779060019B
:100D9300E0D2E3F0759C7375A100790012162A0264
:100DA30011E374F71204AE121037FE906194E0540D
:100DB3001FF970027920900114EAF0A3EBF0898205
:100DC30085820875090074076E600574036E70529E
:100DD300906012E4F0A3F074047808120446120F32
:100DE30050120446AA08AB09E9C3941C4012120F1F
:100DF30060120446120F1E24A6F8E934F8020F0B02
:100E0300E9C39414120F60400A120446120F1E2401
:100E1300BE80E6120446120F1E24D9F8E934F80204
:100E23000F0B74066E600574026E704E906012E4D0
:100E3300F0A3F074057808120446120F501204460A
:100E4300AA08AB09E9C3941C400F120F43120F2ADF
:100E53002416F8E934F6020F0BE9C3941490619257
:100E6300E0540FF9EA4007120F16245680E4120FDC
:100E7300162476F8E934F6020F0B74067808120488
:100E830046AC08AD0974096E7039906012E4F0A3A2
:100E9300121048120446AA08AB09E9C3941C120FA6
:100EA300584010120446EAC3120F2224F6F8E9341C
:100EB300F08055120446EAC3120F2224D6F8E9340F
:100EC300F1804574046E600574086E70449060127E
:100ED300E4F0A3121048120446AA08AB09E9C3942C
:100EE30014120F33740A78084010120446EAC3122E
:100EF3000F222436F8E934EF800E120446EAC312B7
:100F03000F222456F8E934EDF9906014E8F0A3E9D0
:100F1300F08053C3F8EB99120F2A22EAC39508F81D
:100F2300EB9509120F2A22F9E82CF8E93DF9E8229A
:100F3300120F3722906192E0540FF50875090022D1
:100F4300906192E0540FF9EAC3F8EB9922AC08AD33
:100F53000912104D22120F377409780822120F3725
:100F63007407780822F07F0202051474F71204AEA6
:100F7300121037FC906194E0541FF87002782090AF
:100F83000114EAF0A3EBF0888285820875090074E6
:100F9300076C600574036C702174047808120446AE
:100FA300E5082414F8E5093405121040120446E557
:100FB300082480F8E50934F6806E74066C600574C5
:100FC300026C701C74057808120446E50824B0F816
:100FD300E5093404121040120446E50824C0804396
:100FE30074067808120446A808A90974096C7018D5
:100FF300E824D0F8E93407121040120446E5082427
:10100300C0F8E50934F9802074046C600574086C39
:10101300701FE8245CF8E93412121040120446E50C
:101023000824F8F8E50934F8F9906016E8F0A3E924
:10103300F0020F69906190E0C313540F22F990609E
:1010430012E8F0A3E9F012104D22900114E0F50824
:10105300A3E0F5097405780822C082C083EA24B5A9
:10106300547FF8906000E054804802110FC082C0A2
:1010730083121037F8E9900116F07407686005745D
:10108300036870179061A0747FF090619A742AF0DE
:10109300A3745AF0900116740280287401697011C8
:1010A3009061A0747FF090619A743FF0A3745A80AA
:1010B30012E970109061A0743AF090619A7433F061
:1010C300A37455F08047C082C0839061B1E0D2E041
:1010D300803AC082C083E9F8906188E0F99061B1F9
:1010E300E06015E9A2E24010E8601FE5E170FC75DD
:1010F300E10BE591A2E650FAE0C2E0F075910075CC
:101103009B0090607F740FF079008001F0D083D052
:10111300822274F51204AE74FE120459E9FBEA75D7
:10112300F00CA4F8AEF0E42EF9746039F91212B899
:10113300E08510828511831212C3E0C0E0740112AE
:1011430004A4D0E0F0E8241B12151AE0A2E6121161
:10115300E8600EE50AA2E0B31211E86004790980A1
:101163007AEAC3940278005004796180097960EACD
:10117300C3139061C0F0EAA2E050027840E50AA2EE
:10118300E05008E82420F8E93400F97E007F00806D
:10119300248C828D83E088828983F08C828D83A363
:1011A300AC82AD8388828983A3A882A983EE2401BC
:1011B3000EEF3400FF8B08C3EE9508EF12150A40BB
:1011C300D0EAC3940240059061C0E4F0741C250A80
:1011D300F582746012151DEBF07900740212046F2E
:1011E3007F04020514E433F50AF50885108285119E
:1011F30083E5822508F582E5833400F583E022E563
:10120300E170FC89E122C082C083906079E0F974C7
:101213008069700479808015900116E0640270047F
:10122300749D8007E0640160F774B129F90211101D
:1012330074F61204AEE98A0875F00CA4F8AAF0E477
:101243002AF9746039F9E8241912151AECF0E82424
:101253001A12151AEBF0E82423FAE93400FBE82408
:1012630022FEE93400FF906001E05403C39402407E
:1012730021E8241B1212AE1212B8E41212C3E4F0D6
:10128300E824201212AEE824211212AE8E828F833C
:1012930080058E828F83E4F08A828B83F0E82418A2
:1012A30012151AE508F07F03020514F582E93400EC
:1012B300F583E4F022E8241CF582E93400F5832267
:1012C300F0E8241DF582E93400F58322C082C0834F
:1012D300E990601AF0906001E05403C39402401354
:1012E300EB906019F09060201212FDF0906018747A
:1012F300188004906018E402110FE4F0A3F0A3F047
:10130300A322C082C083E9600F14602514604514D2
:1013130060521460740213AD9061E01212FD740701
:10132300F09060081212FD74FFF090600474018065
:10133300789061E0E4F0A3F0A37405F0A37480F067
:10134300906008E4F0A3F0A374FFF0A3F0906004AE
:10135300740280559061E0E4F0A3F0A37421F0A33C
:10136300741080DB9061E0E4F0A374CBF0A3746DA0
:10137300F0A3745DF0906008E4F0A374FFF0A3F0B1
:10138300A3F0906004740380209061E074B7F0A32D
:10139300741DF0A374C1F0A37404F090600874FF8B
:1013A3001212FEF09060047404F0021110C082C0A7
:1013B30083E9A2E1500D9061E97402F090600C742E
:1013C30080800CA2E09061E95004740180EDE40296
:1013D300110F74F51204AE74FC1204598510828542
:1013E3001183EAF0A3EBF0A3ECF0A3EDF09061948A
:1013F300E0541FF970047920803B7420C399FA8567
:10140300108285118378081203BFEA780812035407
:1014130085108285118378081203E1740F1204A4E6
:1014230078081203BFEA7808120354740F1204A455
:1014330078081203E174031204A4E0906198F07435
:10144300021204A4E0906197F0E9C39411401C7464
:10145300011204A4E0906196F0E9C3941940118548
:101463001082851183E09061958009906196E4F084
:10147300906195E4F0740F1204A478081203BFE599
:10148300084509450A450B6042E09061FBF0741181
:101493001204A4E09061FAF0E9C39411401B7410A4
:1014A3001204A4E09061F9F0E9C394194010740F99
:1014B3001204A4E09061F880099061F9E4F090616E
:1014C300F8E4F0906194E0D2E78006906194E0C282
:1014D300E7F074040211E0E5E170FC75E1082274A1
:1014E300F11204AE89D9EAF5D9EBF5D9ECF5D9EDCA
:1014F300F5D97804800775B40785BCD908E8C39982
:1015030040F47F080205149400A2D265D03322E58B
:10151300E170FC75E10922F582E93400F58322C00C
:1015230082C083906182E049F0439A01021110C0A6
:1015330082C083E9F4F8906182E058F0E59AA2E072
:10154300E433F59A021110C2C732C0E0C0D0E8C03C
:10155300E0C082C083E5A1F8A2E4500690011774AD
:1015630001F0E8F4F5A1C2C2D083D082D0E0F8D074
:10157300D0D0E032E942A7D2BA22E9F452A7C2BAE4
:101583002274F11204AE8A0C8B0D8C0E8D0FE9FEC2
:10159300A2AFE433FFC2AF1215F1900117E4F0EEEE
:1015A300600D790812157775C322759C37800B7906
:1015B3001012157775C332759C4775A20075A37D0C
:1015C300E50CF5A4850D09E509F5A57410780C1251
:1015D300033BE50CF5A6906001E054CF4410F07591
:1015E300A100C2C2EFA2E092AF7F08020514759476
:1015F3000075C30075A20075A30075A40075A5004E
:1016030075A60075A100C2C22275C302EAF5A2EB5A
:10161300F5A32274F11204AE75C320EAF5A4EBF529
:10162300A5ECF5A60215ECA2AFE433F8C2AFE9606E
:1016330003439402439401E594A2E250FAE8A2E042
:1016430092AF22A2AFE433F8C2AFE960034394023E
:101653005394FEE594A2E240FA80E274F11204AEE0
:1016630090014D78081203BF90014D780C1203BF0F
:101673001217661220BE1219A47904120C601220EC
:10168300AC12056B9001551203F0121A6E12046F1F
:101693007B107A1879EF1212CF906018E0D2E2F043
:1016A3007A627B0912105C1210C975BC0075BCFF0D
:1016B300121A5990014D1203F0790F1214E290019E
:1016C300591203F0120D698065900113E0A2E050F6
:1016D3003FE5D9F8FE740868701CEE9001241217D8
:1016E30056121756F0900113E4F0790812157D1283
:1016F300095E7900805B79811212029001517808AA
:10170300120373AA08AB09AC0AAD0B790F1214E2EA
:10171300121A62E50C543F70087901120B7E1220F5
:10172300BEE50C547F70077A627B071220C2121544
:1017330012900113E0A2E650F890607FE0608AE027
:101743006404700A900151780C12037380C2121959
:1017530097802312175D12175D22F0E5D9A3F0E5F8
:10176300D9A322120A9D7A487B061221D37901124A
:101773000ACB2212046F7F0802051474F11204AE1F
:1017830074F612045990014D1203F074061204A466
:101793001203FC90014D1203F074021204A412030D
:1017A300FC851082851183E4F0121766900127E00F
:1017B300C0E074011204A4D0E0F09001281220804C
:1017C300A3E0F50CE4F50DF50EF50F7408780C1293
:1017D30003547808790C1203ACA3E0F50CE4F50D7F
:1017E3007410780C1203547808790C1203ACA3E03C
:1017F300F50CE4F50E7418780C1203547808790C80
:101803001203AC90012078081203E11219A490018D
:1018130026E0F9120C601220751220AC12056B90B1
:1018230001551203F0121A6E12046F7B107A1879A5
:10183300EF1212CF79911212021210C97AC87B00EB
:10184300120BE99001591203F0120D69121A598013
:1018530063740165D9703BE5D9F50C6401700A85A1
:1018630010828511837401800EE50C640370098571
:1018730010828511837403F0121A6279011210D554
:101883007901120B2A851082851183E0F9740A020B
:10189300177679811212027991121202121A657463
:1018A300021204A478081203BFE508A2E0500579E8
:1018B30001120B7E74021204A4C082C08390012023
:1018C30078081203BFD083D08278081201C250B0C7
:1018D30090015178081203BF74061204A478081209
:1018E300038674061204A41203F074011204A4E024
:1018F300F91214E2121512900113E0A2E650F890C7
:10190300607FE07045900113E0A2E4502090015104
:1019130078081203BF74021204A4780812038674B1
:10192300021204A412056B12198712046F9001139B
:10193300E0A2E05003021854E0A2E4400302189A24
:101943007A287B071220B502189AE06404702F905E
:10195300015178081203BF74021204A47808120319
:101963008674021204A412056B12198712046F7A8B
:10197300377B071220B5900113E4F002189A12196D
:101983009702189079027C627D077A597B061221AF
:10199300DB740422121A507AE87B03120BE97909EB
:1019A300221220917A0122C082C08312208B7904F3
:1019B30012209E12056B9001551203F0121A6E123B
:1019C300046F7C207BEF7A1979001212331210C94D
:1019D3007C257D017A00900124E014F91211157918
:1019E3000090015D1203F0121A568015121A507CF2
:1019F300257D017A00900124E014F9121115121AC1
:101A0300621214DA790012162A900113E0A2E6504A
:101A1300F890607FE0700F900113E0A2E050D0795E
:101A23008112120280C9E0640170C1790012164666
:101A3300121A62906078E0700A122875E990012EFC
:101A4300F080051220697900D083D08222E0F91258
:101A5300247722121584794012152212095B2290F1
:101A63000113E4F090607F740FF0221213D5740415
:101A73002274F11204AE74D712045990014D12036B
:101A8300F074151204A41203FC90014D1203F074B8
:101A9300111204A41203FC900118C08274211204D1
:101AA300A4AC82AD83758301D082740812041574CB
:101AB3000B1204A4E4F0A3F074091204A4E4F0A349
:101AC300F090014D1203F074011204A41203FC9070
:101AD300014D1203F074191204A41203FC90014D7A
:101AE3001203F0740D1204A41203FC90014D1203AF
:101AF300F0741D1204A41203FC12208B900126E043
:101B0300F912209E12056B9001551203F0121A6E02
:101B130012046F900127E004FC7BEF7A197900121D
:101B230012331220751210C990012078081203BFD6
:101B3300900161780C1203BF7808790C1201D290DE
:101B430001657808120373AA08AB09AC0AAD0BE46C
:101B5300F9121A56790012162A90012EE4F0021C8B
:101B63003C121A6274011204A478081203BFE50838
:101B7300A2E050057901120B7E90012EE060030272
:101B83001C3C74011204A478081203BFE50854072F
:101B93006003021C2474191204A478081203BF748E
:101BA3000D1204A4780812037374051204A47808B0
:101BB3001203E174051204A478081203BF900165AF
:101BC300780C1203BF7808790C1201D27405120441
:101BD300A4780C1203BF74011204A4780C120373CB
:101BE3007808790C120252E50912205F1205547924
:101BF300017CB37D067AAB7B0612199112046F74D4
:101C0300091204A4E0F508A3E0F50912205F120508
:101C13005479027CBE7D067AB77B061219911204B1
:101C23006F74011204A412056B79037C627D077A39
:101C3300C37B0612199112046F120919E96401702A
:101C430034900117E0600890012E7402022048903E
:101C5300012E7401F0790090015D1203F0122056F9
:101C6300906078E0FC741D1204A4ECF0A3E4F0A3EC
:101C7300F0A3F08017120961E9601190012E74033B
:101C8300F0790090015D1203F01220561214DA90DD
:101C93000113E0A2E650F890607FE06003021E4566
:101CA300900113E0A2E04003021EA1900127E0652A
:101CB300D96003021E2F90015178081203BF7401EB
:101CC3001204A47808120386E5D9F50CE5D9F508C2
:101CD300E4F50DF50EF50FF509F50AF50B74087823
:101CE30008120354780C79081203AC85D908E4F57B
:101CF3000974107808120354780C79081203AC7431
:101D0300151204A4780C1203E1121209E9FE60779C
:101D130074151204A478081203BF9001697808129D
:101D2300039974211204A4E5822508F8E583350993
:101D3300F9740B1204A4EEFA3395E0FBE02AFAA33C
:101D4300E03BFB88828983E0FC3395E0FDEAC39C9A
:101D5300FAEB9DFB740B1204A4EAF0A3EBF0EE88FC
:101D6300828983F0740B1204A4E0F508A3E0F5095B
:101D730074037808120436E5094480F974091204DF
:101D8300A4E508F0A3E9F074151204A4C082C0838B
:101D930074111204A478081203BFD083D082780888
:101DA3001201C2503D7AE87B0612176D7AF97B0661
:101DB3001220C27A197B071220B57903120B2A79F4
:101DC30001120B567AE87B03120BE97909022051C1
:101DD30090015178081203BF740D1204A4780812FD
:101DE300038674111204A41203F074051204A412DE
:101DF30003FC74051204A478081203BF9001517800
:101E03000812037374111204A478081203E1741501
:101E13001204A478081203BF90016D7808120373AB
:101E230074051204A4780812019870A4798112121F
:101E33000290012EE0600B7C2E7D017A0079011265
:101E4300111590607FE06401601F74151204A4C033
:101E530082C08390012078081203BFD083D0827898
:101E6300081201986003021B6412095E7901120BC8
:101E73002A121A6290012EE0F87401687055741DDD
:101E83001204A4C082C083906078122080D083D0D3
:101E93008278081201986003022049021C4AE0A2DA
:101EA300E2502790015178081203BF74191204A459
:101EB300780812038690016D78081203BF740D121F
:101EC30004A47808120386021E4590607F121A50FC
:101ED300021DC7E86003022049801290015178086F
:101EE3001203BF740D1204A478081203867411122E
:101EF30004A478081203BF85080C85090D850A0E12
:101F0300850B0F900151780C12037374111204A402
:101F1300780C1203E1900120780812019870BC74C8
:101F2300191204A478081203BF740D1204A47808CC
:101F330012037374051204A478081203E1740512E2
:101F430004A478081203BF900165780C1203BF78CC
:101F530008790C1201D274051204A4780C1203BF81
:101F630074011204A4780C1203737808790C12021A
:101F730052AE08AF09EF12205F12055479017CB30A
:101F83007D067AAB7B0612199112046F7401120459
:101F9300A4780C1203BF851082851183E480088521
:101FA3001082851183E004F090016178081203BF69
:101FB300780C7908120252E50C450D450E450F7059
:101FC300DE74011204A412056B790374041204A4D1
:101FD300E0FA74472AFC74073400FD7AC37B0612C7
:101FE300199112046F900126E0F508780812055C38
:101FF300900127E0F508780812055C900125E0F5CB
:1020030008780812055C740C1204A412056F8E087C
:102013008F09780812055874141204A412056B74FE
:10202300241204A412056B740F1204A4E0F97410B3
:102033001204A41203F01222A2740F12046F1228C6
:102043001EE990012EF012206990012EE0F9742907
:10205300021776121584790012162A223395E0F5B9
:102063000AF50B78082212095E1215F17940121550
:102073003222900125E0FA7B0012105C22E0F50881
:10208300E4F509F50AF50B221220917A0022790171
:102093001210D5120C2E7C167B2022120C607A6251
:1020A3007B0912105C1220AC2279021213059001F5
:1020B3004D221221D37903120ACB227A617B0612B5
:1020C30021D37902120ACB22900113E4F01208BA49
:1020D30075F8C09001247409F090012D7402F07911
:1020E30001120B2A120A9D7A9C7B0512176D7AAD99
:1020F3007B051220C27ABE7B051220B5120919E9AD
:10210300640170F81224BDE9F8740168700D1216A9
:102113005E12177EE9640170F580F6E86003022120
:10212300BB122521E9900125F01225DAE9A3F0126B
:10213300267EE9A3F012270E9001201203FC9001E2
:102143002078081203BFE5089001281221C012036A
:10215300BFE5099001291221C01203BF741078084A
:1021630012033BE50890012A1221C01203BF741821
:10217300780812033BE50890012BF0900126E0F864
:10218300740768600D74036860081227AEE9900154
:102193002CF01219AAE9F874026860F674036860F7
:1021A30080121A74E9F874016860F674026860E2D8
:1021B30074036870030221247A007B0022F09001EB
:1021C30020780822C0E0E589F45289C2C5D0E03204
:1021D300EA2400EB3480FB2274F21204AE74FE1284
:1021E3000459851082851183ECF0A3EDF0890E74F8
:1021F300101204A478081203BF7F007E008012E44B
:1022030093C0E08F0C742F250C122662D0E0F00EE1
:102213000F8E0CEA250CF582EB122666E49370DF31
:102223007E00AA08AB09AC0AAD0B1228BD8A08A828
:10223300088010C0E08F08742F2508122662D0E0B2
:10224300F00E0F8E08E82508F582EB122666E07083
:10225300E27E008009E4938A828B83F00E0F8F085D
:10226300742F2508F874013400F9E8FAE9FBEEF855
:10227300851082851183E028F8A3E03400F9888271
:102283008983E49370CF8A828B83E4F07A2F7B0176
:10229300A90E120ACB740212046F7F07020514748D
:1022A300F11204AE74F5120459E985108285118385
:1022B300F08A088B098C0A8D0B7E0274011204A428
:1022C300AC82AD83758301758271740A1204157F24
:1022D3000274261204A4E0C39464400A0F80077AB0
:1022E300967B00120BE91226FC7401687009EEC399
:1022F3009403500A0E8007E87004EE60041EEE702B
:102303003112266B74281204A4E0F874011204A499
:10231300E58228F582E583122666E075F011A4F8BC
:10232300A9F074B228FA748739FB7903120ACB0235
:10233300244C74016E705474271204A412246A127C
:10234300055479017C147D067A0B7B061225D41281
:10235300046F74261204A4E0244BF50CE434091230
:10236300245E1205541225CA12046F74261204A4A3
:1023730012246A12055479038F0C7459250CFC74CA
:10238300073400FD7AE37B0502244674026E706312
:1023930074221204A4E0F50CA3E0F50DE4F50EF5A8
:1023A3000F780C12055479017CB37D067AAB7B065A
:1023B3001225D412046F74241204A4E0F50CA3E0D4
:1023C30012245E12055479027CBE7D067AB77B0621
:1023D3001225D412046F7808120554790374041279
:1023E30004A4E0FA74592AFC74073400FD7AC37B11
:1023F30006805074036E7051780812055479017485
:10240300041204A4E0FA74502AFC74073400FD7A21
:10241300C37B061225D412046F741A1204A4120586
:102423006B79027C627D077ACB7B061225D412047A
:102433006F741E1204A412056B79037C627D077A04
:10244300D37B061225D412046F12280060030222E4
:10245300E2740B12046F7F08020514F50D3395E047
:10246300F50EF50F780C22E0F50CE4F50DF50EF5FD
:102473000F780C2274F51204AEE9FE8E08E4F50918
:10248300F50AF50B780812055479017C627D077A09
:10249300DB7B061225D412046F7A087B877902123C
:1024A3000ACB7A197B877903120ACB7903120B2A99
:1024B3007901120B567F0402051474F81204AE124C
:1024C3000A9D7ACF7B857901120ACB9085DC12288D
:1024D3000775080080077A647B00120BE91226FC5B
:1024E3007010E508701F7508017AD57B8512286B7B
:1024F300800E740168700E7401650870081225104F
:102503007903120ACB12280070CC02285D750800EB
:10251300AA82AB837902120ACB7A857B872274F372
:102523001204AE7E177A647B00120BE9120A9D75C2
:102533000C85750D87AA0CAB0D7903120ACB8007A6
:102543007A967B00120BE91226FC7009EEC39465A0
:10255300500F0E800C7401687007EEC3941840018D
:102563001E74176E7006AA0CAB0D800F74656E7027
:10257300067A747B8780047A637B877903120ACB9C
:102583008E08E4F509F50AF50B780812055479016C
:102593007C627D077AE37B051225D412046FE5087C
:1025A300244BF508E43409F5093395E0F50AF50BF6
:1025B30078081205541225CA12046F12280070807D
:1025C300EEF97F0602051479027CF57D057AEC7B32
:1025D300051221DB74042274F81204AE74F9120498
:1025E30059851082851183AC82AD83758301758211
:1025F3007B7407120415F508120A9D12266B7A8262
:102603007B017903120ACB80077A967B00120BE9D0
:102613001226FC700BE508C39406500F0508800BC7
:102623007401687006E50860021508850882AE82A9
:10263300EE75F012A4F8A9F0748228FA740139FB3C
:1026430012270270C4851082851183E5822EF582DC
:10265300E583122666E0F9740712046F02285FF51A
:102663008274013400F583227A967B877901120AFA
:10267300CB7AA47B877902120ACB2274F31204AEBD
:10268300120A9D7AFA7B8512279780077A967B0038
:10269300120BE91226FC7009EEC39403500C0E8052
:1026A300097401687004EE60011E8E087429250800
:1026B300F5827408122666E493FF8F08E4F509F5A2
:1026C3000AF50B780812055479027C147D067A62A8
:1026D3007B071225D412046FEE7006AA0CAB0D8093
:1026E3000F74036E70067A747B8780047A637B872A
:1026F3001227027097EF0225C41209B1E9F8227973
:1027030003120ACB120919E964012274F31204AE0D
:10271300120A9D7A1B7B8612279780077A967B0085
:10272300120BE91226FC7009EEC39404500C0E80C0
:10273300097401687004EE60011E8E087509007447
:10274300027808120446742D2508F58274083509A9
:10275300F58378081203CE780812055479027C2C8D
:102763007D067A627B071225D412046FEE7006AAE7
:102773000CAB0D800F74046E70067A747B87800433
:102783007A637B871227027093AA08AB09AC0AAD60
:102793000B0225C57901120ACB750C85750D87AA25
:1027A3000CAB0D7903120ACB7E002274F81204AE2F
:1027B300750800120A9D7A357B867901120ACB903F
:1027C300863F12280780077A967B00120BE91226B0
:1027D300FC7010E508701F7508017A437B86122888
:1027E3006B800E740168700E740165087008122501
:1027F300107903120ACB12280070CC805D120919DC
:10280300E964012212280B22AA82AB837902120AFD
:10281300CB7A857B877903120ACB2274F81204AE34
:10282300120A9D7A837B867901120ACB90868C12D9
:1028330028B680077A967B00120BE91226FC7005F6
:10284300122864800B740168700B7508021225133B
:102853007903120ACB12280070DAA9087F01020556
:10286300147508037A9A7B867902120ACB7A747BF1
:10287300872274F81204AE120A9D7A727B8679015C
:10288300120ACB9086A41228B680077A967B001290
:102893000BE91226FC7005122864800B7401687022
:1028A3000B7508021225137903120ACB1228007044
:1028B300DA80A712280B7508022274F11204AE7491
:1028C300FB12045974011204A4EAF0A3EBF0A3EC85
:1028D300F0A3EDF07A417B0174011204A4C082C01D
:1028E3008390014D78081203BFD083D082780812F9
:1028F30001AD851082851183501C7401F01204A46C
:1029030078081203BF780812032A74011204A4780A
:10291300081203E18002E4F074011204A4780C129B
:1029230003BF90016178081203BF780C7908120283
:10293300ECE50824308A828B83F0A3AA82AB8374EC
:10294300011204A4780C1203BF90016178081203EA
:10295300BF780C79081202EC74011204A4780C12EB
:1029630003E174011204A478081203BFE5084509C2
:10297300450A450B70A2851082851183E0A2E050C1
:102983000B8A828B83742DF0A30AAB838A828B8399
:10299300E41229CF78417901801D8A828B83E0FC80
:1029A30088828983E08A828B831229CFEC8882898B
:1029B30083F0A3A882A983C3E89AE99B40DC7A4108
:1029C3007B01740512046F7F08020514F0EA24FFEB
:1029D3001AEB34FFFB2274F81204AE74081204A439
:1029E300E0F8A3E0F98A828B838003ECF0A3E8FE8E
:1029F300E9FFEE24FF18EF34FFF9EE4F70ED7F018E
:032A0300020514B5
:04000005000000D324
:00000001FF
